{
  "contractName": "VotingDb",
  "abi": [
    {
      "inputs": [
        {
          "internalType": "uint32[][]",
          "name": "Votes",
          "type": "uint32[][]"
        },
        {
          "internalType": "string[]",
          "name": "Candidates",
          "type": "string[]"
        },
        {
          "internalType": "uint32[]",
          "name": "Sections",
          "type": "uint32[]"
        },
        {
          "internalType": "string",
          "name": "Timestamp",
          "type": "string"
        },
        {
          "internalType": "string",
          "name": "CompressedSectionData",
          "type": "string"
        }
      ],
      "stateMutability": "nonpayable",
      "type": "constructor"
    },
    {
      "anonymous": false,
      "inputs": [
        {
          "indexed": true,
          "internalType": "bytes32",
          "name": "CandidateSHA3",
          "type": "bytes32"
        },
        {
          "indexed": true,
          "internalType": "uint32",
          "name": "Section",
          "type": "uint32"
        },
        {
          "indexed": false,
          "internalType": "address",
          "name": "ContractAddress",
          "type": "address"
        },
        {
          "indexed": false,
          "internalType": "uint32",
          "name": "Votes",
          "type": "uint32"
        }
      ],
      "name": "candidate",
      "type": "event"
    },
    {
      "anonymous": false,
      "inputs": [
        {
          "indexed": true,
          "internalType": "address",
          "name": "ContractAddress",
          "type": "address"
        },
        {
          "indexed": false,
          "internalType": "uint256",
          "name": "Block",
          "type": "uint256"
        },
        {
          "indexed": false,
          "internalType": "uint32[]",
          "name": "Sections",
          "type": "uint32[]"
        },
        {
          "indexed": false,
          "internalType": "string[]",
          "name": "Candidates",
          "type": "string[]"
        }
      ],
      "name": "metadata",
      "type": "event"
    },
    {
      "anonymous": false,
      "inputs": [
        {
          "indexed": true,
          "internalType": "uint32",
          "name": "Section",
          "type": "uint32"
        },
        {
          "indexed": false,
          "internalType": "address",
          "name": "ContractAddress",
          "type": "address"
        },
        {
          "indexed": false,
          "internalType": "uint32[]",
          "name": "Votes",
          "type": "uint32[]"
        }
      ],
      "name": "section",
      "type": "event"
    },
    {
      "inputs": [],
      "name": "GetCompressedData",
      "outputs": [
        {
          "internalType": "string",
          "name": "",
          "type": "string"
        }
      ],
      "stateMutability": "view",
      "type": "function",
      "constant": true
    },
    {
      "inputs": [],
      "name": "GetOwner",
      "outputs": [
        {
          "internalType": "address",
          "name": "",
          "type": "address"
        }
      ],
      "stateMutability": "view",
      "type": "function",
      "constant": true
    },
    {
      "inputs": [],
      "name": "GetTimestamp",
      "outputs": [
        {
          "internalType": "string",
          "name": "",
          "type": "string"
        }
      ],
      "stateMutability": "view",
      "type": "function",
      "constant": true
    }
  ],
  "bytecode": "0x60c0604052601360808190527f4372656174696f6e44617461496e76616c69640000000000000000000000000060a090815262000040916000919062000433565b503480156200004e57600080fd5b5060405162000ce038038062000ce0833981016040819052620000719162000788565b620000808385878585620002f2565b600180546001600160a01b031916331790558151620000a790600290602085019062000433565b508051620000bd90600390602084019062000433565b50306001600160a01b03167fc6e4851247d8f94a3b6f4551bd3b42848360a459228e82da9cc903851a869f25438587604051620000fd93929190620008da565b60405180910390a260005b8351811015620002e65783818151811062000127576200012762000958565b602002602001015163ffffffff167fb57e5c2e5455a033a3919e6f163d08466f514cc43d0523f9eceb038be76e2143308884815181106200016c576200016c62000958565b6020026020010151604051620001849291906200096e565b60405180910390a2620001ba868281518110620001a557620001a562000958565b6020026020010151866200040660201b60201c565b60005b8551811015620002d057848281518110620001dc57620001dc62000958565b602002602001015163ffffffff16868281518110620001ff57620001ff62000958565b602002602001015160405160200162000219919062000994565b604051602081830303815290604052805190602001207fefa8b680e192597ffc48e41ccc337bbd3a1cb518a1032d0233231e6d321de414308a868151811062000266576200026662000958565b6020026020010151858151811062000282576200028262000958565b6020026020010151604051620002b39291906001600160a01b0392909216825263ffffffff16602082015260400190565b60405180910390a380620002c781620009b0565b915050620001bd565b5080620002dd81620009b0565b91505062000108565b50505050505062000ac3565b6000855111801562000305575060008451115b801562000313575060008551115b801562000321575084518351145b80156200037057506040805160208101909152600090819052845160008051602062000cc08339815191529186916200035e576200035e62000958565b60200260200101518051906020012014155b8015620003a157506040805160208082019092526000905282519083012060008051602062000cc083398151915214155b8015620003d257506040805160208082019092526000905281519082012060008051602062000cc083398151915214155b600090620003fe5760405162461bcd60e51b8152600401620003f5919062000a14565b60405180910390fd5b505050505050565b80518251146000906200042e5760405162461bcd60e51b8152600401620003f5919062000a14565b505050565b8280546200044190620009d8565b90600052602060002090601f016020900481019282620004655760008555620004b0565b82601f106200048057805160ff1916838001178555620004b0565b82800160010185558215620004b0579182015b82811115620004b057825182559160200191906001019062000493565b50620004be929150620004c2565b5090565b5b80821115620004be5760008155600101620004c3565b634e487b7160e01b600052604160045260246000fd5b604051601f8201601f191681016001600160401b03811182821017156200051a576200051a620004d9565b604052919050565b60006001600160401b038211156200053e576200053e620004d9565b5060051b60200190565b600082601f8301126200055a57600080fd5b81516020620005736200056d8362000522565b620004ef565b82815260059290921b840181019181810190868411156200059357600080fd5b8286015b84811015620005c457805163ffffffff81168114620005b65760008081fd5b835291830191830162000597565b509695505050505050565b600082601f830112620005e157600080fd5b81516020620005f46200056d8362000522565b82815260059290921b840181019181810190868411156200061457600080fd5b8286015b84811015620005c45780516001600160401b03811115620006395760008081fd5b620006498986838b010162000548565b84525091830191830162000618565b60005b83811015620006755781810151838201526020016200065b565b8381111562000685576000848401525b50505050565b600082601f8301126200069d57600080fd5b81516001600160401b03811115620006b957620006b9620004d9565b620006ce601f8201601f1916602001620004ef565b818152846020838601011115620006e457600080fd5b620006f782602083016020870162000658565b949350505050565b600082601f8301126200071157600080fd5b81516020620007246200056d8362000522565b82815260059290921b840181019181810190868411156200074457600080fd5b8286015b84811015620005c45780516001600160401b03811115620007695760008081fd5b620007798986838b01016200068b565b84525091830191830162000748565b600080600080600060a08688031215620007a157600080fd5b85516001600160401b0380821115620007b957600080fd5b620007c789838a01620005cf565b96506020880151915080821115620007de57600080fd5b620007ec89838a01620006ff565b955060408801519150808211156200080357600080fd5b6200081189838a0162000548565b945060608801519150808211156200082857600080fd5b6200083689838a016200068b565b935060808801519150808211156200084d57600080fd5b506200085c888289016200068b565b9150509295509295909350565b600081518084526020808501945080840160005b83811015620008a157815163ffffffff16875295820195908201906001016200087d565b509495945050505050565b60008151808452620008c681602086016020860162000658565b601f01601f19169290920160200192915050565b83815260006020606081840152620008f6606084018662000869565b8381036040850152845180825282820190600581901b8301840184880160005b838110156200094857601f1986840301855262000935838351620008ac565b9487019492509086019060010162000916565b50909a9950505050505050505050565b634e487b7160e01b600052603260045260246000fd5b6001600160a01b0383168152604060208201819052600090620006f79083018462000869565b602081526000620009a96020830184620008ac565b9392505050565b600060018201620009d157634e487b7160e01b600052601160045260246000fd5b5060010190565b600181811c90821680620009ed57607f821691505b60208210810362000a0e57634e487b7160e01b600052602260045260246000fd5b50919050565b600060208083526000845481600182811c91508083168062000a3757607f831692505b858310810362000a5557634e487b7160e01b85526022600452602485fd5b87860183815260200181801562000a75576001811462000a875762000ab4565b60ff1986168252878201965062000ab4565b60008b81526020902060005b8681101562000aae5781548482015290850190890162000a93565b83019750505b50949998505050505050505050565b6101ed8062000ad36000396000f3fe608060405234801561001057600080fd5b50600436106100415760003560e01c80630121e617146100465780630ae50a3914610064578063c699be6e1461007f575b600080fd5b61004e610087565b60405161005b9190610128565b60405180910390f35b6001546040516001600160a01b03909116815260200161005b565b61004e610119565b6060600280546100969061017d565b80601f01602080910402602001604051908101604052809291908181526020018280546100c29061017d565b801561010f5780601f106100e45761010080835404028352916020019161010f565b820191906000526020600020905b8154815290600101906020018083116100f257829003601f168201915b5050505050905090565b6060600380546100969061017d565b600060208083528351808285015260005b8181101561015557858101830151858201604001528201610139565b81811115610167576000604083870101525b50601f01601f1916929092016040019392505050565b600181811c9082168061019157607f821691505b6020821081036101b157634e487b7160e01b600052602260045260246000fd5b5091905056fea264697066735822122062368af5e8204f7509c877afa1c337c6aa4ed1b390bc31c7efb63be3d80bef0a64736f6c634300080d0033c5d2460186f7233c927e7db2dcc703c0e500b653ca82273b7bfad8045d85a470",
  "immutableReferences": {},
  "source": "// SPDX-License-Identifier: GPL-3.0\r\npragma solidity >=0.8.13 <0.9.0;\r\npragma abicoder v2;\r\n\r\ncontract VotingDb \r\n{\r\n    //Errors\r\n    string CreationDataInvalidError = \"CreationDataInvalid\";\r\n\r\n    //Storage\r\n    address _Owner;\r\n    string _Timestamp;\r\n    string _CompressedSectionData;\r\n\r\n    constructor(\r\n        uint32[][] memory Votes,\r\n        string[] memory Candidates,\r\n        uint32[] memory Sections,\r\n        string memory Timestamp,\r\n        string memory CompressedSectionData\r\n    ) \r\n    {\r\n        //Validations\r\n        validation__CreationData(\r\n            Sections,\r\n            Candidates,\r\n            Votes, \r\n            Timestamp, \r\n            CompressedSectionData);\r\n\r\n        //Assignments\r\n        _Owner = msg.sender;\r\n        _Timestamp = Timestamp;\r\n        _CompressedSectionData = CompressedSectionData;\r\n\r\n        emit metadata(address(this), block.number, Sections, Candidates);\r\n        for(uint i = 0; i < Sections.length; i++) \r\n        {\r\n            emit section(Sections[i], address(this), Votes[i]);\r\n            validation__VotesForSection(Votes[i], Candidates);\r\n            for(uint j = 0; j < Candidates.length; j++)\r\n            {\r\n                emit candidate(keccak256(abi.encode(Candidates[j])), Sections[i], address(this), Votes[i][j]);\r\n            }\r\n        }\r\n    }\r\n\r\n\t//Events\r\n    event candidate(\r\n        bytes32 indexed CandidateSHA3, \r\n        uint32 indexed Section, \r\n        address ContractAddress, \r\n        uint32 Votes);\r\n\r\n    event section(\r\n        uint32 indexed Section, \r\n        address ContractAddress, \r\n        uint32[] Votes);\r\n\r\n   event metadata(\r\n        address indexed ContractAddress, \r\n        uint Block, \r\n        uint32[] Sections,\r\n        string[] Candidates);\r\n\r\n    //Validations / Pre-Conditions / Post-Conditions / Invariants\r\n    function validation__CreationData(\r\n        uint32[] memory Sections,\r\n        string[] memory Candidates,\r\n        uint32[][] memory Votes,\r\n        string memory Timestamp,\r\n        string memory CompressedSectionData\r\n    )\r\n        private\r\n        view\r\n    {\r\n        require(\r\n            Sections.length   > 0     &&\r\n            Candidates.length > 0     &&\r\n            Sections.length   > 0     &&\r\n            Votes.length      == Sections.length   &&\r\n            keccak256(bytes(Candidates[0])) != keccak256(bytes(\"\")) &&\r\n            keccak256(bytes(Timestamp)) != keccak256(bytes(\"\")) &&\r\n            keccak256(bytes(CompressedSectionData)) != keccak256(bytes(\"\")),\r\n            CreationDataInvalidError\r\n        );\r\n    }\r\n\r\n    function validation__VotesForSection(\r\n        uint32[] memory VotesForSection,\r\n        string[] memory Candidates\r\n    )\r\n        private\r\n        view\r\n    {\r\n        require(\r\n            VotesForSection.length == Candidates.length,\r\n            CreationDataInvalidError\r\n        );\r\n    }\r\n\r\n    function GetCompressedData()\r\n        public\r\n        view\r\n        returns (string memory)\r\n    {\r\n        return _CompressedSectionData;\r\n    }\r\n\r\n    function GetOwner()\r\n        public\r\n        view\r\n        returns (address)\r\n    {\r\n        return _Owner;\r\n    }\r\n\r\n    function GetTimestamp()\r\n        public\r\n        view\r\n        returns (string memory)\r\n    {\r\n        return _Timestamp;\r\n    }\r\n}",
  "sourcePath": "C:\\Users\\victo\\OneDrive\\rea de Trabalho\\TCC-Project\\VotingDb.Contract\\contracts\\VotingDb.sol",
  "compiler": {
    "name": "solc",
    "version": "0.8.13+commit.abaa5c0e.Emscripten.clang"
  },
  "schemaVersion": "3.4.13",
  "updatedAt": "2023-03-17T14:26:09.595Z",
  "networkType": "ethereum",
  "devdoc": {
    "kind": "dev",
    "methods": {},
    "version": 1
  },
  "userdoc": {
    "kind": "user",
    "methods": {},
    "version": 1
  }
}