{
  "contractName": "VotingDb",
  "abi": [
    {
      "inputs": [
        {
          "internalType": "uint32[]",
          "name": "Sections",
          "type": "uint32[]"
        },
        {
          "internalType": "string",
          "name": "Timestamp",
          "type": "string"
        },
        {
          "internalType": "string",
          "name": "CompressedSectionData",
          "type": "string"
        },
        {
          "internalType": "string[]",
          "name": "SectionJSON",
          "type": "string[]"
        }
      ],
      "stateMutability": "nonpayable",
      "type": "constructor"
    },
    {
      "anonymous": false,
      "inputs": [
        {
          "indexed": true,
          "internalType": "uint32",
          "name": "Section",
          "type": "uint32"
        },
        {
          "indexed": true,
          "internalType": "address",
          "name": "ContractAddress",
          "type": "address"
        },
        {
          "indexed": true,
          "internalType": "uint256",
          "name": "Block",
          "type": "uint256"
        },
        {
          "indexed": false,
          "internalType": "string",
          "name": "SectionJSON",
          "type": "string"
        }
      ],
      "name": "section",
      "type": "event"
    },
    {
      "inputs": [],
      "name": "GetCompressedData",
      "outputs": [
        {
          "internalType": "string",
          "name": "",
          "type": "string"
        }
      ],
      "stateMutability": "view",
      "type": "function",
      "constant": true
    },
    {
      "inputs": [],
      "name": "GetOwner",
      "outputs": [
        {
          "internalType": "address",
          "name": "",
          "type": "address"
        }
      ],
      "stateMutability": "view",
      "type": "function",
      "constant": true
    },
    {
      "inputs": [],
      "name": "GetTimestamp",
      "outputs": [
        {
          "internalType": "string",
          "name": "",
          "type": "string"
        }
      ],
      "stateMutability": "view",
      "type": "function",
      "constant": true
    }
  ],
  "bytecode": "0x60c0604052601360808190527f4372656174696f6e44617461496e76616c69640000000000000000000000000060a090815261003e9160009190610290565b5034801561004b57600080fd5b5060405161092038038061092083398101604081905261006a916104bc565b6100768484848461017b565b600180546001600160a01b03191633179055825161009b906002906020860190610290565b5081516100af906003906020850190610290565b5060005b8451811015610171576100e48282815181106100d1576100d16105d3565b602002602001015161024c60201b60201c565b43306001600160a01b0316868381518110610101576101016105d3565b602002602001015163ffffffff167f9152c441005ab366e5c1f46b5e050a35b54700a65bc3c5e11110ae56d9647b71858581518110610142576101426105d3565b602002602001015160405161015791906105e9565b60405180910390a4806101698161061c565b9150506100b3565b5050505050610724565b6000845111801561018d575060008151115b801561019a575083518151145b80156101db5750604080516020808201909252600090528351908401207fc5d2460186f7233c927e7db2dcc703c0e500b653ca82273b7bfad8045d85a47014155b801561021c5750604080516020808201909252600090528251908301207fc5d2460186f7233c927e7db2dcc703c0e500b653ca82273b7bfad8045d85a47014155b6000906102455760405162461bcd60e51b815260040161023c919061067d565b60405180910390fd5b5050505050565b604080516020808201909252600090528151908201207f3a2db9fe7908dcc36d81824d2338fc3f1aff49ac357dd8c4840527fba27a5b900161028d57600080fd5b50565b82805461029c90610643565b90600052602060002090601f0160209004810192826102be5760008555610304565b82601f106102d757805160ff1916838001178555610304565b82800160010185558215610304579182015b828111156103045782518255916020019190600101906102e9565b50610310929150610314565b5090565b5b808211156103105760008155600101610315565b634e487b7160e01b600052604160045260246000fd5b604051601f8201601f191681016001600160401b038111828210171561036757610367610329565b604052919050565b60006001600160401b0382111561038857610388610329565b5060051b60200190565b60005b838110156103ad578181015183820152602001610395565b838111156103bc576000848401525b50505050565b600082601f8301126103d357600080fd5b81516001600160401b038111156103ec576103ec610329565b6103ff601f8201601f191660200161033f565b81815284602083860101111561041457600080fd5b610425826020830160208701610392565b949350505050565b600082601f83011261043e57600080fd5b8151602061045361044e8361036f565b61033f565b82815260059290921b8401810191818101908684111561047257600080fd5b8286015b848110156104b15780516001600160401b038111156104955760008081fd5b6104a38986838b01016103c2565b845250918301918301610476565b509695505050505050565b600080600080608085870312156104d257600080fd5b84516001600160401b03808211156104e957600080fd5b818701915087601f8301126104fd57600080fd5b8151602061050d61044e8361036f565b82815260059290921b8401810191818101908b84111561052c57600080fd5b948201945b8386101561055d57855163ffffffff8116811461054e5760008081fd5b82529482019490820190610531565b918a015191985090935050508082111561057657600080fd5b610582888389016103c2565b9450604087015191508082111561059857600080fd5b6105a4888389016103c2565b935060608701519150808211156105ba57600080fd5b506105c78782880161042d565b91505092959194509250565b634e487b7160e01b600052603260045260246000fd5b6020815260008251806020840152610608816040850160208701610392565b601f01601f19169190910160400192915050565b60006001820161063c57634e487b7160e01b600052601160045260246000fd5b5060010190565b600181811c9082168061065757607f821691505b60208210810361067757634e487b7160e01b600052602260045260246000fd5b50919050565b600060208083526000845481600182811c91508083168061069f57607f831692505b85831081036106bc57634e487b7160e01b85526022600452602485fd5b8786018381526020018180156106d957600181146106ea57610715565b60ff19861682528782019650610715565b60008b81526020902060005b8681101561070f578154848201529085019089016106f6565b83019750505b50949998505050505050505050565b6101ed806107336000396000f3fe608060405234801561001057600080fd5b50600436106100415760003560e01c80630121e617146100465780630ae50a3914610064578063c699be6e1461007f575b600080fd5b61004e610087565b60405161005b9190610128565b60405180910390f35b6001546040516001600160a01b03909116815260200161005b565b61004e610119565b6060600280546100969061017d565b80601f01602080910402602001604051908101604052809291908181526020018280546100c29061017d565b801561010f5780601f106100e45761010080835404028352916020019161010f565b820191906000526020600020905b8154815290600101906020018083116100f257829003601f168201915b5050505050905090565b6060600380546100969061017d565b600060208083528351808285015260005b8181101561015557858101830151858201604001528201610139565b81811115610167576000604083870101525b50601f01601f1916929092016040019392505050565b600181811c9082168061019157607f821691505b6020821081036101b157634e487b7160e01b600052602260045260246000fd5b5091905056fea2646970667358221220d9b3d56c9d7ece5a771bf7370c7d4d359dcb49e87dbe660603019acd278b4dfb64736f6c634300080d0033",
  "immutableReferences": {},
  "source": "// SPDX-License-Identifier: GPL-3.0\r\npragma solidity >=0.8.13 <0.9.0;\r\npragma abicoder v2;\r\n\r\ncontract VotingDb \r\n{\r\n    //Errors\r\n    string CreationDataInvalidError = \"CreationDataInvalid\";\r\n\r\n    //Storage\r\n    address _Owner;\r\n    string _Timestamp;\r\n    string _CompressedSectionData;\r\n\r\n    constructor(\r\n        uint32[] memory Sections,\r\n        string memory Timestamp,\r\n        string memory CompressedSectionData,\r\n        string[] memory SectionJSON\r\n    ) \r\n    {\r\n        //Validations\r\n        validation__CreationData(\r\n            Sections, \r\n            Timestamp, \r\n            CompressedSectionData,\r\n            SectionJSON);\r\n\r\n        //Assignments\r\n        _Owner = msg.sender;\r\n        _Timestamp = Timestamp;\r\n        _CompressedSectionData = CompressedSectionData;\r\n\r\n        for(uint i = 0; i < Sections.length; i++) \r\n        {\r\n            validate_SectionJSON(SectionJSON[i]);\r\n            emit section(Sections[i], address(this), block.number, SectionJSON[i]);\r\n        }\r\n    }\r\n\r\n    event section(uint32 indexed Section, address indexed ContractAddress, uint indexed Block, string SectionJSON);\r\n\r\n    //Validations / Pre-Conditions / Post-Conditions / Invariants\r\n    function validation__CreationData(\r\n        uint32[] memory Sections,\r\n        string memory Timestamp,\r\n        string memory CompressedSectionData,\r\n        string[] memory SectionJSON\r\n    )\r\n        private\r\n        view\r\n    {\r\n        require(\r\n            Sections.length > 0 &&\r\n            SectionJSON.length > 0 &&\r\n            SectionJSON.length == Sections.length &&\r\n            keccak256(bytes(Timestamp)) != keccak256(bytes(\"\")) &&\r\n            keccak256(bytes(CompressedSectionData)) != keccak256(bytes(\"\")),\r\n            CreationDataInvalidError\r\n        );\r\n    }\r\n\r\n    function validate_SectionJSON(string memory SectionJSON)\r\n        private\r\n        pure\r\n    {        \r\n        require(keccak256(bytes(SectionJSON)) != keccak256(bytes(\"\")));\r\n    }\r\n\r\n    function GetCompressedData()\r\n        public\r\n        view\r\n        returns (string memory)\r\n    {\r\n        return _CompressedSectionData;\r\n    }\r\n\r\n    function GetOwner()\r\n        public\r\n        view\r\n        returns (address)\r\n    {\r\n        return _Owner;\r\n    }\r\n\r\n    function GetTimestamp()\r\n        public\r\n        view\r\n        returns (string memory)\r\n    {\r\n        return _Timestamp;\r\n    }\r\n}",
  "sourcePath": "C:\\Users\\victo\\OneDrive\\rea de Trabalho\\TCC-Project\\VotingDb.Contract\\contracts\\VotingDb.sol",
  "compiler": {
    "name": "solc",
    "version": "0.8.13+commit.abaa5c0e.Emscripten.clang"
  },
  "schemaVersion": "3.4.13",
  "updatedAt": "2023-03-16T22:37:41.086Z",
  "networkType": "ethereum",
  "devdoc": {
    "kind": "dev",
    "methods": {},
    "version": 1
  },
  "userdoc": {
    "kind": "user",
    "methods": {},
    "version": 1
  }
}