{
  "contractName": "VotingDb",
  "abi": [
    {
      "inputs": [
        {
          "internalType": "uint32[][]",
          "name": "Votes",
          "type": "uint32[][]"
        },
        {
          "internalType": "uint32[]",
          "name": "Candidates",
          "type": "uint32[]"
        },
        {
          "internalType": "uint32[]",
          "name": "Sections",
          "type": "uint32[]"
        },
        {
          "internalType": "string",
          "name": "Timestamp",
          "type": "string"
        },
        {
          "internalType": "string",
          "name": "CompressedSectionData",
          "type": "string"
        }
      ],
      "stateMutability": "nonpayable",
      "type": "constructor"
    },
    {
      "anonymous": false,
      "inputs": [
        {
          "indexed": true,
          "internalType": "uint32",
          "name": "Candidate",
          "type": "uint32"
        },
        {
          "indexed": true,
          "internalType": "uint32",
          "name": "Section",
          "type": "uint32"
        },
        {
          "indexed": false,
          "internalType": "address",
          "name": "ContractAddress",
          "type": "address"
        },
        {
          "indexed": false,
          "internalType": "uint32",
          "name": "Votes",
          "type": "uint32"
        }
      ],
      "name": "candidate",
      "type": "event"
    },
    {
      "anonymous": false,
      "inputs": [
        {
          "indexed": true,
          "internalType": "address",
          "name": "ContractAddress",
          "type": "address"
        },
        {
          "indexed": false,
          "internalType": "uint256",
          "name": "Block",
          "type": "uint256"
        },
        {
          "indexed": false,
          "internalType": "uint32[]",
          "name": "Sections",
          "type": "uint32[]"
        }
      ],
      "name": "metadata",
      "type": "event"
    },
    {
      "anonymous": false,
      "inputs": [
        {
          "indexed": true,
          "internalType": "uint32",
          "name": "Section",
          "type": "uint32"
        },
        {
          "indexed": false,
          "internalType": "address",
          "name": "ContractAddress",
          "type": "address"
        },
        {
          "indexed": false,
          "internalType": "uint32[]",
          "name": "Votes",
          "type": "uint32[]"
        },
        {
          "indexed": false,
          "internalType": "uint32[]",
          "name": "Candidates",
          "type": "uint32[]"
        }
      ],
      "name": "section",
      "type": "event"
    },
    {
      "inputs": [],
      "name": "GetCompressedData",
      "outputs": [
        {
          "internalType": "string",
          "name": "",
          "type": "string"
        }
      ],
      "stateMutability": "view",
      "type": "function",
      "constant": true
    },
    {
      "inputs": [],
      "name": "GetOwner",
      "outputs": [
        {
          "internalType": "address",
          "name": "",
          "type": "address"
        }
      ],
      "stateMutability": "view",
      "type": "function",
      "constant": true
    },
    {
      "inputs": [],
      "name": "GetTimestamp",
      "outputs": [
        {
          "internalType": "string",
          "name": "",
          "type": "string"
        }
      ],
      "stateMutability": "view",
      "type": "function",
      "constant": true
    }
  ],
  "bytecode": "0x60c0604052601360808190527f4372656174696f6e44617461496e76616c69640000000000000000000000000060a090815261003e91600091906103a7565b5034801561004b57600080fd5b50604051610abe380380610abe83398101604081905261006a91610631565b610077838587858561029e565b600180546001600160a01b03191633179055815161009c9060029060208501906103a7565b5080516100b09060039060208401906103a7565b50306001600160a01b03167f4e48d149543a6abb61eb932387ae0fd98bebeb7a9fd1d384e27ea8bae02b1f6943856040516100ec929190610743565b60405180910390a260005b83518110156102935783818151811061011257610112610764565b602002602001015163ffffffff167f1d47c2bb1da21a382d116042fc0b72f27690397b6b8065cb059483c9a031be113088848151811061015457610154610764565b60200260200101518860405161016c9392919061077a565b60405180910390a261019d86828151811061018957610189610764565b60200260200101518661037d60201b60201c565b60005b8551811015610280578482815181106101bb576101bb610764565b602002602001015163ffffffff168682815181106101db576101db610764565b602002602001015163ffffffff167f99dc85b86c3891df2d92db75bee310d3aa1da03f7b9953decdcaa303163fd5f3308a868151811061021d5761021d610764565b6020026020010151858151811061023657610236610764565b60200260200101516040516102669291906001600160a01b0392909216825263ffffffff16602082015260400190565b60405180910390a380610278816107ba565b9150506101a0565b508061028b816107ba565b9150506100f7565b5050505050506108c2565b600085511180156102b0575060008451115b80156102bd575060008551115b80156102ca575084518351145b801561030b5750604080516020808201909252600090528251908301207fc5d2460186f7233c927e7db2dcc703c0e500b653ca82273b7bfad8045d85a47014155b801561034c5750604080516020808201909252600090528151908201207fc5d2460186f7233c927e7db2dcc703c0e500b653ca82273b7bfad8045d85a47014155b6000906103755760405162461bcd60e51b815260040161036c919061081b565b60405180910390fd5b505050505050565b80518251146000906103a25760405162461bcd60e51b815260040161036c919061081b565b505050565b8280546103b3906107e1565b90600052602060002090601f0160209004810192826103d5576000855561041b565b82601f106103ee57805160ff191683800117855561041b565b8280016001018555821561041b579182015b8281111561041b578251825591602001919060010190610400565b5061042792915061042b565b5090565b5b80821115610427576000815560010161042c565b634e487b7160e01b600052604160045260246000fd5b604051601f8201601f191681016001600160401b038111828210171561047e5761047e610440565b604052919050565b60006001600160401b0382111561049f5761049f610440565b5060051b60200190565b600082601f8301126104ba57600080fd5b815160206104cf6104ca83610486565b610456565b82815260059290921b840181019181810190868411156104ee57600080fd5b8286015b8481101561051c57805163ffffffff8116811461050f5760008081fd5b83529183019183016104f2565b509695505050505050565b600082601f83011261053857600080fd5b815160206105486104ca83610486565b82815260059290921b8401810191818101908684111561056757600080fd5b8286015b8481101561051c5780516001600160401b0381111561058a5760008081fd5b6105988986838b01016104a9565b84525091830191830161056b565b600082601f8301126105b757600080fd5b81516001600160401b038111156105d0576105d0610440565b60206105e4601f8301601f19168201610456565b82815285828487010111156105f857600080fd5b60005b838110156106165785810183015182820184015282016105fb565b838111156106275760008385840101525b5095945050505050565b600080600080600060a0868803121561064957600080fd5b85516001600160401b038082111561066057600080fd5b61066c89838a01610527565b9650602088015191508082111561068257600080fd5b61068e89838a016104a9565b955060408801519150808211156106a457600080fd5b6106b089838a016104a9565b945060608801519150808211156106c657600080fd5b6106d289838a016105a6565b935060808801519150808211156106e857600080fd5b506106f5888289016105a6565b9150509295509295909350565b600081518084526020808501945080840160005b8381101561073857815163ffffffff1687529582019590820190600101610716565b509495945050505050565b82815260406020820152600061075c6040830184610702565b949350505050565b634e487b7160e01b600052603260045260246000fd5b6001600160a01b038416815260606020820181905260009061079e90830185610702565b82810360408401526107b08185610702565b9695505050505050565b6000600182016107da57634e487b7160e01b600052601160045260246000fd5b5060010190565b600181811c908216806107f557607f821691505b60208210810361081557634e487b7160e01b600052602260045260246000fd5b50919050565b600060208083526000845481600182811c91508083168061083d57607f831692505b858310810361085a57634e487b7160e01b85526022600452602485fd5b8786018381526020018180156108775760018114610888576108b3565b60ff198616825287820196506108b3565b60008b81526020902060005b868110156108ad57815484820152908501908901610894565b83019750505b50949998505050505050505050565b6101ed806108d16000396000f3fe608060405234801561001057600080fd5b50600436106100415760003560e01c80630121e617146100465780630ae50a3914610064578063c699be6e1461007f575b600080fd5b61004e610087565b60405161005b9190610128565b60405180910390f35b6001546040516001600160a01b03909116815260200161005b565b61004e610119565b6060600280546100969061017d565b80601f01602080910402602001604051908101604052809291908181526020018280546100c29061017d565b801561010f5780601f106100e45761010080835404028352916020019161010f565b820191906000526020600020905b8154815290600101906020018083116100f257829003601f168201915b5050505050905090565b6060600380546100969061017d565b600060208083528351808285015260005b8181101561015557858101830151858201604001528201610139565b81811115610167576000604083870101525b50601f01601f1916929092016040019392505050565b600181811c9082168061019157607f821691505b6020821081036101b157634e487b7160e01b600052602260045260246000fd5b5091905056fea264697066735822122046efe1f387a3c1d3205f5f20e0fad8781b08b63df22c668c575c7c67cbe7620364736f6c634300080d0033",
  "immutableReferences": {},
  "source": "// SPDX-License-Identifier: GPL-3.0\r\npragma solidity >=0.8.13 <0.9.0;\r\npragma abicoder v2;\r\n\r\ncontract VotingDb \r\n{\r\n    //Errors\r\n    string CreationDataInvalidError = \"CreationDataInvalid\";\r\n\r\n    //Storage\r\n    address _Owner;\r\n    string _Timestamp;\r\n    string _CompressedSectionData;\r\n\r\n    constructor(\r\n        uint32[][] memory Votes,\r\n        uint32[] memory Candidates,\r\n        uint32[] memory Sections,\r\n        string memory Timestamp,\r\n        string memory CompressedSectionData\r\n    ) \r\n    {\r\n        //Validations\r\n        validation__CreationData(\r\n            Sections,\r\n            Candidates,\r\n            Votes, \r\n            Timestamp, \r\n            CompressedSectionData);\r\n\r\n        //Assignments\r\n        _Owner = msg.sender;\r\n        _Timestamp = Timestamp;\r\n        _CompressedSectionData = CompressedSectionData;\r\n\r\n        emit metadata(address(this), block.number, Sections);\r\n        for(uint i = 0; i < Sections.length; i++) \r\n        {\r\n            emit section(Sections[i], address(this), Votes[i], Candidates);\r\n            validation__VotesForSection(Votes[i], Candidates);\r\n            for(uint j = 0; j < Candidates.length; j++)\r\n            {\r\n                emit candidate(Candidates[j], Sections[i], address(this), Votes[i][j]);\r\n            }\r\n        }\r\n    }\r\n\r\n\t//Events\r\n    event candidate(\r\n        uint32 indexed Candidate, \r\n        uint32 indexed Section, \r\n        address ContractAddress, \r\n        uint32 Votes);\r\n\r\n    event section(\r\n        uint32 indexed Section, \r\n        address ContractAddress, \r\n        uint32[] Votes,\r\n        uint32[] Candidates);\r\n\r\n   event metadata(\r\n        address indexed ContractAddress, \r\n        uint Block, \r\n        uint32[] Sections);\r\n\r\n    //Validations / Pre-Conditions / Post-Conditions / Invariants\r\n    function validation__CreationData(\r\n        uint32[] memory Sections,\r\n        uint32[] memory Candidates,\r\n        uint32[][] memory Votes,\r\n        string memory Timestamp,\r\n        string memory CompressedSectionData\r\n    )\r\n        private\r\n        view\r\n    {\r\n        require(\r\n            Sections.length   > 0     &&\r\n            Candidates.length > 0     &&\r\n            Sections.length   > 0     &&\r\n            Votes.length      == Sections.length   &&\r\n            keccak256(bytes(Timestamp)) != keccak256(bytes(\"\")) &&\r\n            keccak256(bytes(CompressedSectionData)) != keccak256(bytes(\"\")),\r\n            CreationDataInvalidError\r\n        );\r\n    }\r\n\r\n    function validation__VotesForSection(\r\n        uint32[] memory VotesForSection,\r\n        uint32[] memory Candidates\r\n    )\r\n        private\r\n        view\r\n    {\r\n        require(\r\n            VotesForSection.length == Candidates.length,\r\n            CreationDataInvalidError\r\n        );\r\n    }\r\n\r\n    function GetCompressedData()\r\n        public\r\n        view\r\n        returns (string memory)\r\n    {\r\n        return _CompressedSectionData;\r\n    }\r\n\r\n    function GetOwner()\r\n        public\r\n        view\r\n        returns (address)\r\n    {\r\n        return _Owner;\r\n    }\r\n\r\n    function GetTimestamp()\r\n        public\r\n        view\r\n        returns (string memory)\r\n    {\r\n        return _Timestamp;\r\n    }\r\n}",
  "sourcePath": "C:\\Users\\victo\\OneDrive\\rea de Trabalho\\TCC-Project\\VotingDb.Contract\\contracts\\VotingDb.sol",
  "compiler": {
    "name": "solc",
    "version": "0.8.13+commit.abaa5c0e.Emscripten.clang"
  },
  "schemaVersion": "3.4.13",
  "updatedAt": "2023-03-26T18:52:10.977Z",
  "networkType": "ethereum",
  "devdoc": {
    "kind": "dev",
    "methods": {},
    "version": 1
  },
  "userdoc": {
    "kind": "user",
    "methods": {},
    "version": 1
  }
}