{
  "contractName": "VotingDb",
  "abi": [
    {
      "inputs": [
        {
          "internalType": "uint32[]",
          "name": "Sections",
          "type": "uint32[]"
        },
        {
          "internalType": "string",
          "name": "Timestamp",
          "type": "string"
        },
        {
          "internalType": "string",
          "name": "VotesJSON",
          "type": "string"
        },
        {
          "internalType": "string",
          "name": "CompressedSectionData",
          "type": "string"
        }
      ],
      "stateMutability": "nonpayable",
      "type": "constructor"
    },
    {
      "anonymous": false,
      "inputs": [
        {
          "indexed": true,
          "internalType": "address",
          "name": "Account",
          "type": "address"
        },
        {
          "indexed": true,
          "internalType": "uint256",
          "name": "Block",
          "type": "uint256"
        },
        {
          "indexed": true,
          "internalType": "bool",
          "name": "Election",
          "type": "bool"
        },
        {
          "indexed": false,
          "internalType": "uint32[]",
          "name": "Sections",
          "type": "uint32[]"
        },
        {
          "indexed": false,
          "internalType": "string",
          "name": "VotesJSON",
          "type": "string"
        },
        {
          "indexed": false,
          "internalType": "string",
          "name": "Timestamp",
          "type": "string"
        },
        {
          "indexed": false,
          "internalType": "address",
          "name": "ContractAddress",
          "type": "address"
        }
      ],
      "name": "heartbeat",
      "type": "event"
    },
    {
      "inputs": [],
      "name": "GetCompressedData",
      "outputs": [
        {
          "internalType": "string",
          "name": "",
          "type": "string"
        }
      ],
      "stateMutability": "view",
      "type": "function",
      "constant": true
    },
    {
      "inputs": [],
      "name": "GetOwner",
      "outputs": [
        {
          "internalType": "address",
          "name": "",
          "type": "address"
        }
      ],
      "stateMutability": "view",
      "type": "function",
      "constant": true
    },
    {
      "inputs": [],
      "name": "GetTimestamp",
      "outputs": [
        {
          "internalType": "string",
          "name": "",
          "type": "string"
        }
      ],
      "stateMutability": "view",
      "type": "function",
      "constant": true
    }
  ],
  "bytecode": "0x60c0604052601360808190527f4372656174696f6e44617461496e76616c69640000000000000000000000000060a090815261003e91600091906101c7565b5034801561004b57600080fd5b5060405161081538038061081583398101604081905261006a91610341565b61007684848484610105565b600180546001600160a01b03191633179055825161009b9060029060208601906101c7565b5080516100af9060039060208401906101c7565b506001151543336001600160a01b03167f086621f3136daef7aaae2e09b8b895850be033a5c20af36b74bcf3b9407e8848878688306040516100f49493929190610496565b60405180910390a4505050506105f9565b600084511180156101395750604080516020808201909252600090528251908301206000805160206107f583398151915214155b80156101685750604080516020808201909252600090528351908401206000805160206107f583398151915214155b80156101975750604080516020808201909252600090528151908201206000805160206107f583398151915214155b6000906101c05760405162461bcd60e51b81526004016101b79190610552565b60405180910390fd5b5050505050565b8280546101d390610518565b90600052602060002090601f0160209004810192826101f5576000855561023b565b82601f1061020e57805160ff191683800117855561023b565b8280016001018555821561023b579182015b8281111561023b578251825591602001919060010190610220565b5061024792915061024b565b5090565b5b80821115610247576000815560010161024c565b634e487b7160e01b600052604160045260246000fd5b604051601f8201601f191681016001600160401b038111828210171561029e5761029e610260565b604052919050565b60005b838110156102c15781810151838201526020016102a9565b838111156102d0576000848401525b50505050565b600082601f8301126102e757600080fd5b81516001600160401b0381111561030057610300610260565b610313601f8201601f1916602001610276565b81815284602083860101111561032857600080fd5b6103398260208301602087016102a6565b949350505050565b6000806000806080858703121561035757600080fd5b84516001600160401b038082111561036e57600080fd5b818701915087601f83011261038257600080fd5b815160208282111561039657610396610260565b8160051b6103a5828201610276565b928352848101820192828101908c8511156103bf57600080fd5b958301955b848710156103f3578651925063ffffffff831683146103e35760008081fd5b82825295830195908301906103c4565b928b01519299509194505050508082111561040d57600080fd5b610419888389016102d6565b9450604087015191508082111561042f57600080fd5b61043b888389016102d6565b9350606087015191508082111561045157600080fd5b5061045e878288016102d6565b91505092959194509250565b600081518084526104828160208601602086016102a6565b601f01601f19169290920160200192915050565b6080808252855190820181905260009060209060a0840190828901845b828110156104d557815163ffffffff16845292840192908401906001016104b3565b505050838103828501526104e9818861046a565b91505082810360408401526104fe818661046a565b91505060018060a01b038316606083015295945050505050565b600181811c9082168061052c57607f821691505b60208210810361054c57634e487b7160e01b600052602260045260246000fd5b50919050565b600060208083526000845481600182811c91508083168061057457607f831692505b858310810361059157634e487b7160e01b85526022600452602485fd5b8786018381526020018180156105ae57600181146105bf576105ea565b60ff198616825287820196506105ea565b60008b81526020902060005b868110156105e4578154848201529085019089016105cb565b83019750505b50949998505050505050505050565b6101ed806106086000396000f3fe608060405234801561001057600080fd5b50600436106100415760003560e01c80630121e617146100465780630ae50a3914610064578063c699be6e1461007f575b600080fd5b61004e610087565b60405161005b9190610128565b60405180910390f35b6001546040516001600160a01b03909116815260200161005b565b61004e610119565b6060600280546100969061017d565b80601f01602080910402602001604051908101604052809291908181526020018280546100c29061017d565b801561010f5780601f106100e45761010080835404028352916020019161010f565b820191906000526020600020905b8154815290600101906020018083116100f257829003601f168201915b5050505050905090565b6060600380546100969061017d565b600060208083528351808285015260005b8181101561015557858101830151858201604001528201610139565b81811115610167576000604083870101525b50601f01601f1916929092016040019392505050565b600181811c9082168061019157607f821691505b6020821081036101b157634e487b7160e01b600052602260045260246000fd5b5091905056fea2646970667358221220c6eb6f6ef569787909bbb1cf1d4a7bb0eaf5e2e0683ef6d4af778129a753030f64736f6c634300080d0033c5d2460186f7233c927e7db2dcc703c0e500b653ca82273b7bfad8045d85a470",
  "immutableReferences": {},
  "source": "// SPDX-License-Identifier: GPL-3.0\r\npragma solidity >=0.8.13 <0.9.0;\r\npragma abicoder v2;\r\n\r\ncontract VotingDb \r\n{\r\n    //Errors\r\n    string CreationDataInvalidError = \"CreationDataInvalid\";\r\n\r\n    //Storage\r\n    address _Owner;\r\n    string _Timestamp;\r\n    string _CompressedSectionData;\r\n\r\n    constructor(\r\n        uint32[] memory Sections,\r\n        string memory Timestamp,\r\n        string memory VotesJSON,\r\n        string memory CompressedSectionData\r\n    ) \r\n    {\r\n        //Validations\r\n        validation__CreationData(\r\n            Sections, \r\n            Timestamp, \r\n            VotesJSON, \r\n            CompressedSectionData);\r\n\r\n        //Assignments\r\n        _Owner = msg.sender;\r\n        _Timestamp = Timestamp;\r\n        _CompressedSectionData = CompressedSectionData;\r\n\r\n        emit heartbeat(\r\n            msg.sender, \r\n            block.number, \r\n            true, \r\n            Sections, \r\n            VotesJSON,\r\n            Timestamp,\r\n            address(this));\r\n    }\r\n\r\n    //Events\r\n    event heartbeat(\r\n        address indexed Account,\r\n        uint indexed Block, \r\n        bool indexed Election, \r\n        uint32[] Sections,\r\n        string VotesJSON,\r\n        string Timestamp,\r\n        address ContractAddress);\r\n\r\n    //Validations / Pre-Conditions / Post-Conditions / Invariants\r\n    function validation__CreationData(\r\n        uint32[] memory Sections,\r\n        string memory Timestamp,\r\n        string memory VotesJSON,\r\n        string memory CompressedSectionData\r\n    )\r\n        private\r\n        view\r\n    {\r\n        require(\r\n            Sections.length > 0 &&\r\n            keccak256(bytes(VotesJSON)) != keccak256(bytes(\"\")) && \r\n            keccak256(bytes(Timestamp)) != keccak256(bytes(\"\")) &&\r\n            keccak256(bytes(CompressedSectionData)) != keccak256(bytes(\"\")),\r\n            CreationDataInvalidError\r\n        );\r\n    }\r\n\r\n    function GetCompressedData()\r\n        public\r\n        view\r\n        returns (string memory)\r\n    {\r\n        return _CompressedSectionData;\r\n    }\r\n\r\n    function GetOwner()\r\n        public\r\n        view\r\n        returns (address)\r\n    {\r\n        return _Owner;\r\n    }\r\n\r\n    function GetTimestamp()\r\n        public\r\n        view\r\n        returns (string memory)\r\n    {\r\n        return _Timestamp;\r\n    }\r\n}",
  "sourcePath": "C:\\Users\\victo\\OneDrive\\rea de Trabalho\\TCC-Project\\VotingDb.Contract\\contracts\\VotingDb.sol",
  "compiler": {
    "name": "solc",
    "version": "0.8.13+commit.abaa5c0e.Emscripten.clang"
  },
  "schemaVersion": "3.4.13",
  "updatedAt": "2023-03-14T05:45:00.222Z",
  "networkType": "ethereum",
  "devdoc": {
    "kind": "dev",
    "methods": {},
    "version": 1
  },
  "userdoc": {
    "kind": "user",
    "methods": {},
    "version": 1
  }
}