{
  "contractName": "VotingDb",
  "abi": [
    {
      "inputs": [
        {
          "internalType": "uint32[]",
          "name": "Sections",
          "type": "uint32[]"
        },
        {
          "internalType": "string",
          "name": "Timestamp",
          "type": "string"
        },
        {
          "internalType": "string",
          "name": "VotesJSON",
          "type": "string"
        },
        {
          "internalType": "string",
          "name": "CompressedSectionData",
          "type": "string"
        }
      ],
      "stateMutability": "nonpayable",
      "type": "constructor"
    },
    {
      "anonymous": false,
      "inputs": [
        {
          "indexed": true,
          "internalType": "address",
          "name": "Account",
          "type": "address"
        },
        {
          "indexed": true,
          "internalType": "uint256",
          "name": "Block",
          "type": "uint256"
        },
        {
          "indexed": true,
          "internalType": "bool",
          "name": "Election",
          "type": "bool"
        },
        {
          "indexed": false,
          "internalType": "uint32[]",
          "name": "Sections",
          "type": "uint32[]"
        },
        {
          "indexed": false,
          "internalType": "string",
          "name": "VotesJSON",
          "type": "string"
        },
        {
          "indexed": false,
          "internalType": "string",
          "name": "Timestamp",
          "type": "string"
        },
        {
          "indexed": false,
          "internalType": "address",
          "name": "ContractAddress",
          "type": "address"
        }
      ],
      "name": "heartbeat",
      "type": "event"
    },
    {
      "anonymous": false,
      "inputs": [
        {
          "indexed": true,
          "internalType": "uint32",
          "name": "Section",
          "type": "uint32"
        },
        {
          "indexed": false,
          "internalType": "address",
          "name": "ContractAddress",
          "type": "address"
        },
        {
          "indexed": false,
          "internalType": "uint256",
          "name": "Block",
          "type": "uint256"
        }
      ],
      "name": "indexing",
      "type": "event"
    },
    {
      "inputs": [],
      "name": "GetCompressedData",
      "outputs": [
        {
          "internalType": "string",
          "name": "",
          "type": "string"
        }
      ],
      "stateMutability": "view",
      "type": "function",
      "constant": true
    },
    {
      "inputs": [],
      "name": "GetOwner",
      "outputs": [
        {
          "internalType": "address",
          "name": "",
          "type": "address"
        }
      ],
      "stateMutability": "view",
      "type": "function",
      "constant": true
    },
    {
      "inputs": [],
      "name": "GetTimestamp",
      "outputs": [
        {
          "internalType": "string",
          "name": "",
          "type": "string"
        }
      ],
      "stateMutability": "view",
      "type": "function",
      "constant": true
    }
  ],
  "bytecode": "0x60c0604052601360808190527f4372656174696f6e44617461496e76616c69640000000000000000000000000060a090815261003e9160009190610259565b5034801561004b57600080fd5b506040516108ea3803806108ea83398101604081905261006a916103d3565b61007684848484610197565b600180546001600160a01b03191633179055825161009b906002906020860190610259565b5080516100af906003906020840190610259565b506001151543336001600160a01b03167f086621f3136daef7aaae2e09b8b895850be033a5c20af36b74bcf3b9407e8848878688306040516100f49493929190610528565b60405180910390a460005b84518160ff16101561018d57848160ff1681518110610120576101206105aa565b602002602001015163ffffffff167fb28f0b3a5651bae428e5f6859ee4263c7fccca0e8e81b8118b776f22dc2c00c130436040516101739291906001600160a01b03929092168252602082015260400190565b60405180910390a280610185816105c0565b9150506100ff565b50505050506106ce565b600084511180156101cb5750604080516020808201909252600090528251908301206000805160206108ca83398151915214155b80156101fa5750604080516020808201909252600090528351908401206000805160206108ca83398151915214155b80156102295750604080516020808201909252600090528151908201206000805160206108ca83398151915214155b6000906102525760405162461bcd60e51b81526004016102499190610627565b60405180910390fd5b5050505050565b828054610265906105ed565b90600052602060002090601f01602090048101928261028757600085556102cd565b82601f106102a057805160ff19168380011785556102cd565b828001600101855582156102cd579182015b828111156102cd5782518255916020019190600101906102b2565b506102d99291506102dd565b5090565b5b808211156102d957600081556001016102de565b634e487b7160e01b600052604160045260246000fd5b604051601f8201601f191681016001600160401b0381118282101715610330576103306102f2565b604052919050565b60005b8381101561035357818101518382015260200161033b565b83811115610362576000848401525b50505050565b600082601f83011261037957600080fd5b81516001600160401b03811115610392576103926102f2565b6103a5601f8201601f1916602001610308565b8181528460208386010111156103ba57600080fd5b6103cb826020830160208701610338565b949350505050565b600080600080608085870312156103e957600080fd5b84516001600160401b038082111561040057600080fd5b818701915087601f83011261041457600080fd5b8151602082821115610428576104286102f2565b8160051b610437828201610308565b928352848101820192828101908c85111561045157600080fd5b958301955b84871015610485578651925063ffffffff831683146104755760008081fd5b8282529583019590830190610456565b928b01519299509194505050508082111561049f57600080fd5b6104ab88838901610368565b945060408701519150808211156104c157600080fd5b6104cd88838901610368565b935060608701519150808211156104e357600080fd5b506104f087828801610368565b91505092959194509250565b60008151808452610514816020860160208601610338565b601f01601f19169290920160200192915050565b6080808252855190820181905260009060209060a0840190828901845b8281101561056757815163ffffffff1684529284019290840190600101610545565b5050508381038285015261057b81886104fc565b915050828103604084015261059081866104fc565b91505060018060a01b038316606083015295945050505050565b634e487b7160e01b600052603260045260246000fd5b600060ff821660ff81036105e457634e487b7160e01b600052601160045260246000fd5b60010192915050565b600181811c9082168061060157607f821691505b60208210810361062157634e487b7160e01b600052602260045260246000fd5b50919050565b600060208083526000845481600182811c91508083168061064957607f831692505b858310810361066657634e487b7160e01b85526022600452602485fd5b8786018381526020018180156106835760018114610694576106bf565b60ff198616825287820196506106bf565b60008b81526020902060005b868110156106b9578154848201529085019089016106a0565b83019750505b50949998505050505050505050565b6101ed806106dd6000396000f3fe608060405234801561001057600080fd5b50600436106100415760003560e01c80630121e617146100465780630ae50a3914610064578063c699be6e1461007f575b600080fd5b61004e610087565b60405161005b9190610128565b60405180910390f35b6001546040516001600160a01b03909116815260200161005b565b61004e610119565b6060600280546100969061017d565b80601f01602080910402602001604051908101604052809291908181526020018280546100c29061017d565b801561010f5780601f106100e45761010080835404028352916020019161010f565b820191906000526020600020905b8154815290600101906020018083116100f257829003601f168201915b5050505050905090565b6060600380546100969061017d565b600060208083528351808285015260005b8181101561015557858101830151858201604001528201610139565b81811115610167576000604083870101525b50601f01601f1916929092016040019392505050565b600181811c9082168061019157607f821691505b6020821081036101b157634e487b7160e01b600052602260045260246000fd5b5091905056fea2646970667358221220fa9d4e9ffc2d75477e712a20bd3eea61f8d0de9d9adbc3cb8ba341cc7033452264736f6c634300080d0033c5d2460186f7233c927e7db2dcc703c0e500b653ca82273b7bfad8045d85a470",
  "immutableReferences": {},
  "source": "// SPDX-License-Identifier: GPL-3.0\r\npragma solidity >=0.8.13 <0.9.0;\r\npragma abicoder v2;\r\n\r\ncontract VotingDb \r\n{\r\n    //Errors\r\n    string CreationDataInvalidError = \"CreationDataInvalid\";\r\n\r\n    //Storage\r\n    address _Owner;\r\n    string _Timestamp;\r\n    string _CompressedSectionData;\r\n\r\n    constructor(\r\n        uint32[] memory Sections,\r\n        string memory Timestamp,\r\n        string memory VotesJSON,\r\n        string memory CompressedSectionData\r\n    ) \r\n    {\r\n        //Validations\r\n        validation__CreationData(\r\n            Sections, \r\n            Timestamp, \r\n            VotesJSON, \r\n            CompressedSectionData);\r\n\r\n        //Assignments\r\n        _Owner = msg.sender;\r\n        _Timestamp = Timestamp;\r\n        _CompressedSectionData = CompressedSectionData;\r\n\r\n        emit heartbeat(\r\n            msg.sender, \r\n            block.number, \r\n            true, \r\n            Sections, \r\n            VotesJSON,\r\n            Timestamp,\r\n            address(this));\r\n\r\n        for(uint8 i = 0; i < Sections.length; i++) \r\n        {\r\n            emit indexing(Sections[i], address(this), block.number);\r\n        }\r\n    }\r\n\r\n    //Events\r\n    event heartbeat(\r\n        address indexed Account,\r\n        uint indexed Block, \r\n        bool indexed Election, \r\n        uint32[] Sections,\r\n        string VotesJSON,\r\n        string Timestamp,\r\n        address ContractAddress);\r\n\r\n    event indexing(uint32 indexed Section, address ContractAddress, uint Block);\r\n\r\n    //Validations / Pre-Conditions / Post-Conditions / Invariants\r\n    function validation__CreationData(\r\n        uint32[] memory Sections,\r\n        string memory Timestamp,\r\n        string memory VotesJSON,\r\n        string memory CompressedSectionData\r\n    )\r\n        private\r\n        view\r\n    {\r\n        require(\r\n            Sections.length > 0 &&\r\n            keccak256(bytes(VotesJSON)) != keccak256(bytes(\"\")) && \r\n            keccak256(bytes(Timestamp)) != keccak256(bytes(\"\")) &&\r\n            keccak256(bytes(CompressedSectionData)) != keccak256(bytes(\"\")),\r\n            CreationDataInvalidError\r\n        );\r\n    }\r\n\r\n    function GetCompressedData()\r\n        public\r\n        view\r\n        returns (string memory)\r\n    {\r\n        return _CompressedSectionData;\r\n    }\r\n\r\n    function GetOwner()\r\n        public\r\n        view\r\n        returns (address)\r\n    {\r\n        return _Owner;\r\n    }\r\n\r\n    function GetTimestamp()\r\n        public\r\n        view\r\n        returns (string memory)\r\n    {\r\n        return _Timestamp;\r\n    }\r\n}",
  "sourcePath": "C:\\Users\\victo\\OneDrive\\rea de Trabalho\\TCC-Project\\VotingDb.Contract\\contracts\\VotingDb.sol",
  "compiler": {
    "name": "solc",
    "version": "0.8.13+commit.abaa5c0e.Emscripten.clang"
  },
  "schemaVersion": "3.4.13",
  "updatedAt": "2023-03-15T06:09:16.947Z",
  "networkType": "ethereum",
  "devdoc": {
    "kind": "dev",
    "methods": {},
    "version": 1
  },
  "userdoc": {
    "kind": "user",
    "methods": {},
    "version": 1
  }
}