{
  "contractName": "VotingDb",
  "abi": [
    {
      "inputs": [
        {
          "internalType": "uint256[][]",
          "name": "votes",
          "type": "uint256[][]"
        },
        {
          "internalType": "string[]",
          "name": "candidates",
          "type": "string[]"
        },
        {
          "internalType": "uint256[]",
          "name": "sections",
          "type": "uint256[]"
        },
        {
          "internalType": "string",
          "name": "timestamp",
          "type": "string"
        }
      ],
      "stateMutability": "nonpayable",
      "type": "constructor"
    },
    {
      "inputs": [
        {
          "internalType": "uint256",
          "name": "sectionID",
          "type": "uint256"
        }
      ],
      "name": "getVotesBySection",
      "outputs": [
        {
          "internalType": "string[]",
          "name": "",
          "type": "string[]"
        },
        {
          "internalType": "uint256[]",
          "name": "",
          "type": "uint256[]"
        }
      ],
      "stateMutability": "view",
      "type": "function",
      "constant": true
    },
    {
      "inputs": [
        {
          "internalType": "uint256",
          "name": "sectionID",
          "type": "uint256"
        },
        {
          "internalType": "string",
          "name": "candidate",
          "type": "string"
        }
      ],
      "name": "getVotesOnSectionByCandidate",
      "outputs": [
        {
          "internalType": "uint256",
          "name": "votes",
          "type": "uint256"
        }
      ],
      "stateMutability": "view",
      "type": "function",
      "constant": true
    },
    {
      "inputs": [],
      "name": "getAllVotes",
      "outputs": [
        {
          "internalType": "uint256[]",
          "name": "",
          "type": "uint256[]"
        },
        {
          "internalType": "string[]",
          "name": "",
          "type": "string[]"
        },
        {
          "internalType": "uint256[][]",
          "name": "",
          "type": "uint256[][]"
        }
      ],
      "stateMutability": "view",
      "type": "function",
      "constant": true
    }
  ],
  "bytecode": "0x60806040523480156200001157600080fd5b50604051620018d6380380620018d6833981810160405281019062000037919062000836565b33600460006101000a81548173ffffffffffffffffffffffffffffffffffffffff021916908373ffffffffffffffffffffffffffffffffffffffff160217905550806003908051906020019062000090929190620001be565b508160029080519060200190620000a99291906200024f565b508260019080519060200190620000c2929190620002a1565b5060005b8251811015620001b35760005b84518110156200019c57858281518110620000f357620000f262000924565b5b6020026020010151818151811062000110576200010f62000924565b5b602002602001015160008086858151811062000131576200013062000924565b5b602002602001015181526020019081526020016000208683815181106200015d576200015c62000924565b5b6020026020010151604051620001749190620009a0565b90815260200160405180910390208190555080806200019390620009e8565b915050620000d3565b508080620001aa90620009e8565b915050620000c6565b505050505062000a99565b828054620001cc9062000a64565b90600052602060002090601f016020900481019282620001f057600085556200023c565b82601f106200020b57805160ff19168380011785556200023c565b828001600101855582156200023c579182015b828111156200023b5782518255916020019190600101906200021e565b5b5090506200024b919062000308565b5090565b8280548282559060005260206000209081019282156200028e579160200282015b828111156200028d57825182559160200191906001019062000270565b5b5090506200029d919062000308565b5090565b828054828255906000526020600020908101928215620002f5579160200282015b82811115620002f4578251829080519060200190620002e3929190620001be565b5091602001919060010190620002c2565b5b50905062000304919062000327565b5090565b5b808211156200032357600081600090555060010162000309565b5090565b5b808211156200034b57600081816200034191906200034f565b5060010162000328565b5090565b5080546200035d9062000a64565b6000825580601f1062000371575062000392565b601f01602090049060005260206000209081019062000391919062000308565b5b50565b6000604051905090565b600080fd5b600080fd5b600080fd5b6000601f19601f8301169050919050565b7f4e487b7100000000000000000000000000000000000000000000000000000000600052604160045260246000fd5b620003f982620003ae565b810181811067ffffffffffffffff821117156200041b576200041a620003bf565b5b80604052505050565b60006200043062000395565b90506200043e8282620003ee565b919050565b600067ffffffffffffffff821115620004615762000460620003bf565b5b602082029050602081019050919050565b600080fd5b600067ffffffffffffffff821115620004955762000494620003bf565b5b602082029050602081019050919050565b6000819050919050565b620004bb81620004a6565b8114620004c757600080fd5b50565b600081519050620004db81620004b0565b92915050565b6000620004f8620004f28462000477565b62000424565b905080838252602082019050602084028301858111156200051e576200051d62000472565b5b835b818110156200054b5780620005368882620004ca565b84526020840193505060208101905062000520565b5050509392505050565b600082601f8301126200056d576200056c620003a9565b5b81516200057f848260208601620004e1565b91505092915050565b60006200059f620005998462000443565b62000424565b90508083825260208201905060208402830185811115620005c557620005c462000472565b5b835b818110156200061357805167ffffffffffffffff811115620005ee57620005ed620003a9565b5b808601620005fd898262000555565b85526020850194505050602081019050620005c7565b5050509392505050565b600082601f830112620006355762000634620003a9565b5b81516200064784826020860162000588565b91505092915050565b600067ffffffffffffffff8211156200066e576200066d620003bf565b5b602082029050602081019050919050565b600080fd5b600067ffffffffffffffff821115620006a257620006a1620003bf565b5b620006ad82620003ae565b9050602081019050919050565b60005b83811015620006da578082015181840152602081019050620006bd565b83811115620006ea576000848401525b50505050565b600062000707620007018462000684565b62000424565b9050828152602081018484840111156200072657620007256200067f565b5b62000733848285620006ba565b509392505050565b600082601f830112620007535762000752620003a9565b5b815162000765848260208601620006f0565b91505092915050565b6000620007856200077f8462000650565b62000424565b90508083825260208201905060208402830185811115620007ab57620007aa62000472565b5b835b81811015620007f957805167ffffffffffffffff811115620007d457620007d3620003a9565b5b808601620007e389826200073b565b85526020850194505050602081019050620007ad565b5050509392505050565b600082601f8301126200081b576200081a620003a9565b5b81516200082d8482602086016200076e565b91505092915050565b600080600080608085870312156200085357620008526200039f565b5b600085015167ffffffffffffffff811115620008745762000873620003a4565b5b62000882878288016200061d565b945050602085015167ffffffffffffffff811115620008a657620008a5620003a4565b5b620008b48782880162000803565b935050604085015167ffffffffffffffff811115620008d857620008d7620003a4565b5b620008e68782880162000555565b925050606085015167ffffffffffffffff8111156200090a5762000909620003a4565b5b62000918878288016200073b565b91505092959194509250565b7f4e487b7100000000000000000000000000000000000000000000000000000000600052603260045260246000fd5b600081519050919050565b600081905092915050565b6000620009768262000953565b6200098281856200095e565b935062000994818560208601620006ba565b80840191505092915050565b6000620009ae828462000969565b915081905092915050565b7f4e487b7100000000000000000000000000000000000000000000000000000000600052601160045260246000fd5b6000620009f582620004a6565b91507fffffffffffffffffffffffffffffffffffffffffffffffffffffffffffffffff820362000a2a5762000a29620009b9565b5b600182019050919050565b7f4e487b7100000000000000000000000000000000000000000000000000000000600052602260045260246000fd5b6000600282049050600182168062000a7d57607f821691505b60208210810362000a935762000a9262000a35565b5b50919050565b610e2d8062000aa96000396000f3fe608060405234801561001057600080fd5b50600436106100415760003560e01c8063851b6ef214610046578063e0042b4a14610066578063f270ce8514610097575b600080fd5b61004e6100c7565b60405161005d93929190610919565b60405180910390f35b610080600480360381019061007b91906109a5565b6103c8565b60405161008e9291906109d2565b60405180910390f35b6100b160048036038101906100ac9190610b3e565b61058c565b6040516100be9190610ba9565b60405180910390f35b6060806060600060028054905067ffffffffffffffff8111156100ed576100ec610a13565b5b60405190808252806020026020018201604052801561012057816020015b606081526020019060019003908161010b5790505b509050601e6002805490501461013957610138610bc4565b5b60005b60028054905081101561029157600060018054905067ffffffffffffffff81111561016a57610169610a13565b5b6040519080825280602002602001820160405280156101985781602001602082028036833780820191505090505b5090506004600180549050146101b1576101b0610bc4565b5b60005b60018054905081101561025d57600080600285815481106101d8576101d7610bf3565b5b906000526020600020015481526020019081526020016000206001828154811061020557610204610bf3565b5b9060005260206000200160405161021c9190610d21565b90815260200160405180910390205482828151811061023e5761023d610bf3565b5b602002602001018181525050808061025590610d67565b9150506101b4565b508083838151811061027257610271610bf3565b5b602002602001018190525050808061028990610d67565b91505061013c565b506002600182828054806020026020016040519081016040528092919081815260200182805480156102e257602002820191906000526020600020905b8154815260200190600101908083116102ce575b5050505050925081805480602002602001604051908101604052809291908181526020016000905b828210156103b657838290600052602060002001805461032990610c51565b80601f016020809104026020016040519081016040528092919081815260200182805461035590610c51565b80156103a25780601f10610377576101008083540402835291602001916103a2565b820191906000526020600020905b81548152906001019060200180831161038557829003601f168201915b50505050508152602001906001019061030a565b50505050915093509350935050909192565b606080600060018054905067ffffffffffffffff8111156103ec576103eb610a13565b5b60405190808252806020026020018201604052801561041a5781602001602082028036833780820191505090505b50905060005b6001805490508110156104ab576000808681526020019081526020016000206001828154811061045357610452610bf3565b5b9060005260206000200160405161046a9190610d21565b90815260200160405180910390205482828151811061048c5761048b610bf3565b5b60200260200101818152505080806104a390610d67565b915050610420565b5060018181805480602002602001604051908101604052809291908181526020016000905b8282101561057c5783829060005260206000200180546104ef90610c51565b80601f016020809104026020016040519081016040528092919081815260200182805461051b90610c51565b80156105685780601f1061053d57610100808354040283529160200191610568565b820191906000526020600020905b81548152906001019060200180831161054b57829003601f168201915b5050505050815260200190600101906104d0565b5050505091509250925050915091565b6000806000848152602001908152602001600020826040516105ae9190610de0565b908152602001604051809103902054905092915050565b600081519050919050565b600082825260208201905092915050565b6000819050602082019050919050565b6000819050919050565b610604816105f1565b82525050565b600061061683836105fb565b60208301905092915050565b6000602082019050919050565b600061063a826105c5565b61064481856105d0565b935061064f836105e1565b8060005b83811015610680578151610667888261060a565b975061067283610622565b925050600181019050610653565b5085935050505092915050565b600081519050919050565b600082825260208201905092915050565b6000819050602082019050919050565b600081519050919050565b600082825260208201905092915050565b60005b838110156106f35780820151818401526020810190506106d8565b83811115610702576000848401525b50505050565b6000601f19601f8301169050919050565b6000610724826106b9565b61072e81856106c4565b935061073e8185602086016106d5565b61074781610708565b840191505092915050565b600061075e8383610719565b905092915050565b6000602082019050919050565b600061077e8261068d565b6107888185610698565b93508360208202850161079a856106a9565b8060005b858110156107d657848403895281516107b78582610752565b94506107c283610766565b925060208a0199505060018101905061079e565b50829750879550505050505092915050565b600081519050919050565b600082825260208201905092915050565b6000819050602082019050919050565b600082825260208201905092915050565b6000610830826105c5565b61083a8185610814565b9350610845836105e1565b8060005b8381101561087657815161085d888261060a565b975061086883610622565b925050600181019050610849565b5085935050505092915050565b600061088f8383610825565b905092915050565b6000602082019050919050565b60006108af826107e8565b6108b981856107f3565b9350836020820285016108cb85610804565b8060005b8581101561090757848403895281516108e88582610883565b94506108f383610897565b925060208a019950506001810190506108cf565b50829750879550505050505092915050565b60006060820190508181036000830152610933818661062f565b905081810360208301526109478185610773565b9050818103604083015261095b81846108a4565b9050949350505050565b6000604051905090565b600080fd5b600080fd5b610982816105f1565b811461098d57600080fd5b50565b60008135905061099f81610979565b92915050565b6000602082840312156109bb576109ba61096f565b5b60006109c984828501610990565b91505092915050565b600060408201905081810360008301526109ec8185610773565b90508181036020830152610a00818461062f565b90509392505050565b600080fd5b600080fd5b7f4e487b7100000000000000000000000000000000000000000000000000000000600052604160045260246000fd5b610a4b82610708565b810181811067ffffffffffffffff82111715610a6a57610a69610a13565b5b80604052505050565b6000610a7d610965565b9050610a898282610a42565b919050565b600067ffffffffffffffff821115610aa957610aa8610a13565b5b610ab282610708565b9050602081019050919050565b82818337600083830152505050565b6000610ae1610adc84610a8e565b610a73565b905082815260208101848484011115610afd57610afc610a0e565b5b610b08848285610abf565b509392505050565b600082601f830112610b2557610b24610a09565b5b8135610b35848260208601610ace565b91505092915050565b60008060408385031215610b5557610b5461096f565b5b6000610b6385828601610990565b925050602083013567ffffffffffffffff811115610b8457610b83610974565b5b610b9085828601610b10565b9150509250929050565b610ba3816105f1565b82525050565b6000602082019050610bbe6000830184610b9a565b92915050565b7f4e487b7100000000000000000000000000000000000000000000000000000000600052600160045260246000fd5b7f4e487b7100000000000000000000000000000000000000000000000000000000600052603260045260246000fd5b7f4e487b7100000000000000000000000000000000000000000000000000000000600052602260045260246000fd5b60006002820490506001821680610c6957607f821691505b602082108103610c7c57610c7b610c22565b5b50919050565b600081905092915050565b60008190508160005260206000209050919050565b60008154610caf81610c51565b610cb98186610c82565b94506001821660008114610cd45760018114610ce557610d18565b60ff19831686528186019350610d18565b610cee85610c8d565b60005b83811015610d1057815481890152600182019150602081019050610cf1565b838801955050505b50505092915050565b6000610d2d8284610ca2565b915081905092915050565b7f4e487b7100000000000000000000000000000000000000000000000000000000600052601160045260246000fd5b6000610d72826105f1565b91507fffffffffffffffffffffffffffffffffffffffffffffffffffffffffffffffff8203610da457610da3610d38565b5b600182019050919050565b6000610dba826106b9565b610dc48185610c82565b9350610dd48185602086016106d5565b80840191505092915050565b6000610dec8284610daf565b91508190509291505056fea2646970667358221220ac2b18862c9589b87c86c9bbc57e8ef7b31d59901694964099d2bc0449ee38a764736f6c634300080d0033",
  "immutableReferences": {},
  "source": "// SPDX-License-Identifier: GPL-3.0\r\npragma solidity >=0.8.0 <0.9.0;\r\npragma abicoder v2;\r\n\r\ncontract VotingDb \r\n{\r\n    //Sections (uint) > Candidates (string) > Votes (uint)\r\n    mapping(uint => mapping(string => uint)) _sectionResults;\r\n    \r\n    string[] _candidates;\r\n    uint[] _sections;\r\n    string _timestamp;\r\n    address _owner;\r\n\r\n    constructor\r\n    (\r\n        uint[][] memory votes,\r\n        string[] memory candidates,\r\n        uint[] memory sections,\r\n        string memory timestamp\r\n    ) \r\n    {\r\n        _owner = msg.sender;\r\n        _timestamp = timestamp;\r\n        _sections = sections;\r\n        _candidates = candidates;\r\n\r\n        for(uint i = 0; i < sections.length; i++) \r\n        {\r\n            for(uint j = 0; j < candidates.length; j++)\r\n            {\r\n                _sectionResults[sections[i]][candidates[j]] = votes[i][j];\r\n            }\r\n        }\r\n    }\r\n\r\n    //Queries\r\n    function getVotesBySection(uint sectionID) \r\n    public \r\n    view \r\n    returns (string[] memory, uint[] memory) \r\n    {\r\n        uint[] memory votes = new uint[](_candidates.length);\r\n        for(uint i = 0; i < _candidates.length; i++) \r\n        {\r\n            votes[i] = _sectionResults[sectionID][_candidates[i]];\r\n        }\r\n\r\n        return (_candidates, votes);\r\n    }\r\n\r\n    function getVotesOnSectionByCandidate(uint sectionID, string memory candidate) \r\n    public\r\n    view\r\n    returns (uint votes)\r\n    {\r\n        return _sectionResults[sectionID][candidate];\r\n    }\r\n\r\n    function getAllVotes()\r\n    public\r\n    view\r\n    returns (uint[] memory, string[] memory, uint[][] memory)\r\n    {\r\n        uint[][] memory votes = new uint[][](_sections.length);\r\n\r\n        assert(_sections.length == 30);\r\n        for(uint i = 0; i < _sections.length; i++)\r\n        {\r\n            uint[] memory votesByCandidate = new uint[](_candidates.length);\r\n            assert(_candidates.length == 4);\r\n            for(uint j = 0; j < _candidates.length; j++) \r\n            {\r\n                votesByCandidate[j] = _sectionResults[_sections[i]][_candidates[j]];\r\n            }\r\n            votes[i] = votesByCandidate;\r\n        }\r\n\r\n        return (_sections, _candidates, votes);\r\n    }\r\n}",
  "sourcePath": "C:\\Users\\victo\\OneDrive\\rea de Trabalho\\TCC-ContractProject\\contracts\\VotingDb.sol",
  "compiler": {
    "name": "solc",
    "version": "0.8.13+commit.abaa5c0e.Emscripten.clang"
  },
  "schemaVersion": "3.4.13",
  "updatedAt": "2023-03-05T22:22:06.977Z",
  "networkType": "ethereum",
  "devdoc": {
    "kind": "dev",
    "methods": {},
    "version": 1
  },
  "userdoc": {
    "kind": "user",
    "methods": {},
    "version": 1
  }
}