{
  "contractName": "VotingDb",
  "abi": [
    {
      "inputs": [
        {
          "internalType": "uint24[][]",
          "name": "votes",
          "type": "uint24[][]"
        },
        {
          "internalType": "string[]",
          "name": "candidates",
          "type": "string[]"
        },
        {
          "internalType": "uint24[]",
          "name": "sections",
          "type": "uint24[]"
        },
        {
          "internalType": "string",
          "name": "timestamp",
          "type": "string"
        }
      ],
      "stateMutability": "nonpayable",
      "type": "constructor"
    },
    {
      "inputs": [],
      "name": "CandidateNotFound",
      "type": "error"
    },
    {
      "inputs": [],
      "name": "ContractEmpty",
      "type": "error"
    },
    {
      "inputs": [],
      "name": "SectionNotFound",
      "type": "error"
    },
    {
      "inputs": [
        {
          "internalType": "uint24",
          "name": "sectionID",
          "type": "uint24"
        }
      ],
      "name": "getVotesBySection",
      "outputs": [
        {
          "internalType": "string[]",
          "name": "",
          "type": "string[]"
        },
        {
          "internalType": "uint24[]",
          "name": "",
          "type": "uint24[]"
        }
      ],
      "stateMutability": "view",
      "type": "function",
      "constant": true
    },
    {
      "inputs": [
        {
          "internalType": "uint24",
          "name": "sectionID",
          "type": "uint24"
        },
        {
          "internalType": "string",
          "name": "candidate",
          "type": "string"
        }
      ],
      "name": "getVotesOnSectionByCandidate",
      "outputs": [
        {
          "internalType": "uint24",
          "name": "votes",
          "type": "uint24"
        }
      ],
      "stateMutability": "view",
      "type": "function",
      "constant": true
    },
    {
      "inputs": [],
      "name": "getAllVotes",
      "outputs": [
        {
          "internalType": "uint24[]",
          "name": "",
          "type": "uint24[]"
        },
        {
          "internalType": "string[]",
          "name": "",
          "type": "string[]"
        },
        {
          "internalType": "uint24[][]",
          "name": "",
          "type": "uint24[][]"
        }
      ],
      "stateMutability": "view",
      "type": "function",
      "constant": true
    }
  ],
  "bytecode": "0x60806040523480156200001157600080fd5b50604051620014f8380380620014f883398101604081905262000034916200061b565b600480546001600160a01b0319163317905580516200005b906003906020840190620001df565b508151620000719060029060208501906200026e565b508251620000879060019060208601906200031c565b5060005b82518160ff161015620001d45760005b84518160ff161015620001be576040518060400160405280878460ff1681518110620000cb57620000cb6200074f565b60200260200101518360ff1681518110620000ea57620000ea6200074f565b602002602001015162ffffff16815260200160011515815250600080868560ff16815181106200011e576200011e6200074f565b602002602001015162ffffff1662ffffff168152602001908152602001600020868360ff16815181106200015657620001566200074f565b60200260200101516040516200016d919062000765565b9081526040516020918190038201902082518154939092015162ffffff90921663ffffffff199093169290921763010000009115159190910217905580620001b58162000783565b9150506200009b565b5080620001cb8162000783565b9150506200008b565b5050505050620007ed565b828054620001ed90620007b1565b90600052602060002090601f0160209004810192826200021157600085556200025c565b82601f106200022c57805160ff19168380011785556200025c565b828001600101855582156200025c579182015b828111156200025c5782518255916020019190600101906200023f565b506200026a9291506200037c565b5090565b82805482825590600052602060002090600901600a900481019282156200025c5791602002820160005b83821115620002dc57835183826101000a81548162ffffff021916908362ffffff160217905550926020019260030160208160020104928301926001030262000298565b80156200030d5782816101000a81549062ffffff0219169055600301602081600201049283019260010302620002dc565b50506200026a9291506200037c565b8280548282559060005260206000209081019282156200036e579160200282015b828111156200036e57825180516200035d918491602090910190620001df565b50916020019190600101906200033d565b506200026a92915062000393565b5b808211156200026a57600081556001016200037d565b808211156200026a576000620003aa8282620003b4565b5060010162000393565b508054620003c290620007b1565b6000825580601f10620003d3575050565b601f016020900490600052602060002090810190620003f391906200037c565b50565b634e487b7160e01b600052604160045260246000fd5b604051601f8201601f191681016001600160401b0381118282101715620004375762000437620003f6565b604052919050565b60006001600160401b038211156200045b576200045b620003f6565b5060051b60200190565b600082601f8301126200047757600080fd5b81516020620004906200048a836200043f565b6200040c565b82815260059290921b84018101918181019086841115620004b057600080fd5b8286015b84811015620004e057805162ffffff81168114620004d25760008081fd5b8352918301918301620004b4565b509695505050505050565b60005b8381101562000508578181015183820152602001620004ee565b8381111562000518576000848401525b50505050565b600082601f8301126200053057600080fd5b81516001600160401b038111156200054c576200054c620003f6565b62000561601f8201601f19166020016200040c565b8181528460208386010111156200057757600080fd5b6200058a826020830160208701620004eb565b949350505050565b600082601f830112620005a457600080fd5b81516020620005b76200048a836200043f565b82815260059290921b84018101918181019086841115620005d757600080fd5b8286015b84811015620004e05780516001600160401b03811115620005fc5760008081fd5b6200060c8986838b01016200051e565b845250918301918301620005db565b600080600080608085870312156200063257600080fd5b84516001600160401b03808211156200064a57600080fd5b818701915087601f8301126200065f57600080fd5b81516020620006726200048a836200043f565b82815260059290921b8401810191818101908b8411156200069257600080fd5b8286015b84811015620006cf57805186811115620006b05760008081fd5b620006c08e86838b010162000465565b84525091830191830162000696565b50918a0151919850909350505080821115620006ea57600080fd5b620006f88883890162000592565b945060408701519150808211156200070f57600080fd5b6200071d8883890162000465565b935060608701519150808211156200073457600080fd5b5062000743878288016200051e565b91505092959194509250565b634e487b7160e01b600052603260045260246000fd5b6000825162000779818460208701620004eb565b9190910192915050565b600060ff821660ff8103620007a857634e487b7160e01b600052601160045260246000fd5b60010192915050565b600181811c90821680620007c657607f821691505b602082108103620007e757634e487b7160e01b600052602260045260246000fd5b50919050565b610cfb80620007fd6000396000f3fe608060405234801561001057600080fd5b50600436106100415760003560e01c80636eaf1c9114610046578063851b6ef214610072578063a4fe877614610089575b600080fd5b6100596100543660046108d6565b6100aa565b60405162ffffff90911681526020015b60405180910390f35b61007a610186565b60405161006993929190610a78565b61009c610097366004610b2b565b6105ae565b604051610069929190610b4d565b60006100b5826107fa565b6100eb576040517f6fc1420700000000000000000000000000000000000000000000000000000000815260040160405180910390fd5b62ffffff831660009081526020819052604090819020905161010e908490610b7b565b9081526040519081900360200190205460ff630100000090910416610146576040516393b5695b60e01b815260040160405180910390fd5b62ffffff8316600090815260208190526040908190209051610169908490610b7b565b9081526040519081900360200190205462ffffff16905092915050565b606080606060008060026000815481106101a2576101a2610b97565b90600052602060002090600a91828204019190066003029054906101000a900462ffffff1662ffffff1662ffffff16815260200190815260200160002060016000815481106101f3576101f3610b97565b9060005260206000200160405161020a9190610be7565b9081526040519081900360200190205460ff63010000009091041661025b576040517f7da4b33300000000000000000000000000000000000000000000000000000000815260040160405180910390fd5b60025460009067ffffffffffffffff811115610279576102796108c0565b6040519080825280602002602001820160405280156102ac57816020015b60608152602001906001900390816102975790505b50600254909150601e146102c2576102c2610c82565b60005b60025460ff8216101561044d5760015460009067ffffffffffffffff8111156102f0576102f06108c0565b604051908082528060200260200182016040528015610319578160200160208202803683370190505b5060015490915060041461032f5761032f610c82565b60005b60015460ff821610156104175760008060028560ff168154811061035857610358610b97565b90600052602060002090600a91828204019190066003029054906101000a900462ffffff1662ffffff1662ffffff16815260200190815260200160002060018260ff16815481106103ab576103ab610b97565b906000526020600020016040516103c29190610be7565b90815260405190819003602001902054825162ffffff90911690839060ff84169081106103f1576103f1610b97565b62ffffff909216602092830291909101909101528061040f81610c98565b915050610332565b5080838360ff168151811061042e5761042e610b97565b602002602001018190525050808061044590610c98565b9150506102c5565b506002600182828054806020026020016040519081016040528092919081815260200182805480156104c857602002820191906000526020600020906000905b82829054906101000a900462ffffff1662ffffff168152602001906003019060208260020104928301926001038202915080841161048d5790505b5050505050925081805480602002602001604051908101604052809291908181526020016000905b8282101561059c57838290600052602060002001805461050f90610bad565b80601f016020809104026020016040519081016040528092919081815260200182805461053b90610bad565b80156105885780601f1061055d57610100808354040283529160200191610588565b820191906000526020600020905b81548152906001019060200180831161056b57829003601f168201915b5050505050815260200190600101906104f0565b50505050915093509350935050909192565b62ffffff8116600090815260208190526040812060018054606093849392916105d9576105d9610b97565b906000526020600020016040516105f09190610be7565b9081526040519081900360200190205460ff630100000090910416610628576040516393b5695b60e01b815260040160405180910390fd5b60015460009067ffffffffffffffff811115610646576106466108c0565b60405190808252806020026020018201604052801561066f578160200160208202803683370190505b50905060005b60015460ff821610156107195762ffffff851660009081526020819052604090206001805460ff84169081106106ad576106ad610b97565b906000526020600020016040516106c49190610be7565b90815260405190819003602001902054825162ffffff90911690839060ff84169081106106f3576106f3610b97565b62ffffff909216602092830291909101909101528061071181610c98565b915050610675565b5060018181805480602002602001604051908101604052809291908181526020016000905b828210156107ea57838290600052602060002001805461075d90610bad565b80601f016020809104026020016040519081016040528092919081815260200182805461078990610bad565b80156107d65780601f106107ab576101008083540402835291602001916107d6565b820191906000526020600020905b8154815290600101906020018083116107b957829003601f168201915b50505050508152602001906001019061073e565b5050505091509250925050915091565b6000808260405160200161080e9190610b7b565b60405160208183030381529060405280519060200120905060005b60015460ff8216101561089e578160018260ff168154811061084d5761084d610b97565b906000526020600020016040516020016108679190610be7565b604051602081830303815290604052805190602001200361088c575060019392505050565b8061089681610c98565b915050610829565b5060009392505050565b803562ffffff811681146108bb57600080fd5b919050565b634e487b7160e01b600052604160045260246000fd5b600080604083850312156108e957600080fd5b6108f2836108a8565b9150602083013567ffffffffffffffff8082111561090f57600080fd5b818501915085601f83011261092357600080fd5b813581811115610935576109356108c0565b604051601f8201601f19908116603f0116810190838211818310171561095d5761095d6108c0565b8160405282815288602084870101111561097657600080fd5b8260208601602083013760006020848301015280955050505050509250929050565b600081518084526020808501945080840160005b838110156109cd57815162ffffff16875295820195908201906001016109ac565b509495945050505050565b60005b838110156109f35781810151838201526020016109db565b83811115610a02576000848401525b50505050565b600082825180855260208086019550808260051b84010181860160005b84811015610a6b57601f1980878503018a5282518051808652610a4d818888018985016109d8565b9a86019a601f01909116939093018401925090830190600101610a25565b5090979650505050505050565b606081526000610a8b6060830186610998565b602083820381850152610a9e8287610a08565b915083820360408501528185518084528284019150828160051b8501018388016000805b84811015610b1a57878403601f19018652825180518086529088019088860190845b81811015610b0557835162ffffff168352928a0192918a0191600101610ae4565b50509688019694505091860191600101610ac2565b50919b9a5050505050505050505050565b600060208284031215610b3d57600080fd5b610b46826108a8565b9392505050565b604081526000610b606040830185610a08565b8281036020840152610b728185610998565b95945050505050565b60008251610b8d8184602087016109d8565b9190910192915050565b634e487b7160e01b600052603260045260246000fd5b600181811c90821680610bc157607f821691505b602082108103610be157634e487b7160e01b600052602260045260246000fd5b50919050565b600080835481600182811c915080831680610c0357607f831692505b60208084108203610c2257634e487b7160e01b86526022600452602486fd5b818015610c365760018114610c4757610c74565b60ff19861689528489019650610c74565b60008a81526020902060005b86811015610c6c5781548b820152908501908301610c53565b505084890196505b509498975050505050505050565b634e487b7160e01b600052600160045260246000fd5b600060ff821660ff8103610cbc57634e487b7160e01b600052601160045260246000fd5b6001019291505056fea2646970667358221220bcf6d9e333fe0c079f62e69fe2c5466b5bc681150d91ab73e9e05651ea14060864736f6c634300080d0033",
  "immutableReferences": {},
  "source": "// SPDX-License-Identifier: GPL-3.0\r\npragma solidity >=0.8.0 <0.9.0;\r\npragma abicoder v2;\r\n\r\ncontract VotingDb \r\n{\r\n    struct Vote {\r\n        uint24 vote;\r\n        bool exist;\r\n    }\r\n\r\n    error SectionNotFound();\r\n    error CandidateNotFound();\r\n    error ContractEmpty();\r\n\r\n    //Sections (uint) > Candidates (string) > Votes (uint)\r\n    mapping(uint24 => mapping(string => Vote)) _sectionResults;\r\n\r\n    string[] _candidates;\r\n    uint24[] _sections;\r\n    string _timestamp;\r\n    address _owner;\r\n\r\n    constructor(\r\n        uint24[][] memory votes,\r\n        string[] memory candidates,\r\n        uint24[] memory sections,\r\n        string memory timestamp\r\n    ) {\r\n        _owner = msg.sender;\r\n        _timestamp = timestamp;\r\n        _sections = sections;\r\n        _candidates = candidates;\r\n\r\n        for (uint8 i = 0; i < sections.length; i++) \r\n        {\r\n            for (uint8 j = 0; j < candidates.length; j++) \r\n            {\r\n                _sectionResults[sections[i]][candidates[j]] = \r\n                Vote({\r\n                        vote: votes[i][j],\r\n                        exist: true\r\n                });\r\n            }\r\n        }\r\n    }\r\n\r\n    //Functions\r\n    function candidateExist(string memory target)\r\n        private\r\n        view\r\n        returns (bool)\r\n    {\r\n        bytes32 targetBytes = keccak256(abi.encodePacked(target));\r\n        for(uint8 i = 0; i < _candidates.length; i++) \r\n        {\r\n            if(keccak256(abi.encodePacked(_candidates[i])) == targetBytes)\r\n            {\r\n                return true;\r\n            }\r\n        }\r\n        return false;\r\n    }\r\n\r\n    //Queries\r\n    function getVotesBySection(uint24 sectionID)\r\n        public\r\n        view\r\n        returns (string[] memory, uint24[] memory)\r\n    {\r\n        //Post-Condition(s)\r\n        if(!_sectionResults[sectionID][_candidates[0]].exist)\r\n        {\r\n            revert SectionNotFound();\r\n        }\r\n\r\n        uint24[] memory votes = new uint24[](_candidates.length);\r\n        for (uint8 i = 0; i < _candidates.length; i++) \r\n        {\r\n            votes[i] = _sectionResults[sectionID][_candidates[i]].vote;\r\n        }\r\n\r\n        return (_candidates, votes);\r\n    }\r\n\r\n    function getVotesOnSectionByCandidate(\r\n        uint24 sectionID,\r\n        string memory candidate\r\n    ) public view returns (uint24 votes) {\r\n        //Post-Condition(s)\r\n        if(!candidateExist(candidate)) \r\n        {\r\n            revert CandidateNotFound();\r\n        }\r\n        if(!_sectionResults[sectionID][candidate].exist) \r\n        {\r\n            revert SectionNotFound();\r\n        }\r\n\r\n        return _sectionResults[sectionID][candidate].vote;\r\n    }\r\n\r\n    function getAllVotes()\r\n        public\r\n        view\r\n        returns (\r\n            uint24[] memory,\r\n            string[] memory,\r\n            uint24[][] memory\r\n        )\r\n    {\r\n        //Post-Condition(s)\r\n        if(!_sectionResults[_sections[0]][_candidates[0]].exist)\r\n        {\r\n            revert ContractEmpty();\r\n        }\r\n\r\n        uint24[][] memory votes = new uint24[][](_sections.length);\r\n\r\n        assert(_sections.length == 30);\r\n        for (uint8 i = 0; i < _sections.length; i++) \r\n        {\r\n            uint24[] memory votesByCandidate = new uint24[](_candidates.length);\r\n            assert(_candidates.length == 4);\r\n            for (uint8 j = 0; j < _candidates.length; j++) \r\n            {\r\n                votesByCandidate[j] = _sectionResults[_sections[i]][_candidates[j]].vote;\r\n            }\r\n            votes[i] = votesByCandidate;\r\n        }\r\n\r\n        return (_sections, _candidates, votes);\r\n    }\r\n}",
  "sourcePath": "C:\\Users\\victo\\OneDrive\\rea de Trabalho\\TCC-ContractProject\\contracts\\VotingDb.sol",
  "compiler": {
    "name": "solc",
    "version": "0.8.13+commit.abaa5c0e.Emscripten.clang"
  },
  "schemaVersion": "3.4.13",
  "updatedAt": "2023-03-06T02:59:28.936Z",
  "networkType": "ethereum",
  "devdoc": {
    "kind": "dev",
    "methods": {},
    "version": 1
  },
  "userdoc": {
    "kind": "user",
    "methods": {},
    "version": 1
  }
}