{
  "contractName": "VotingDb",
  "abi": [
    {
      "inputs": [
        {
          "internalType": "uint256[][]",
          "name": "votes",
          "type": "uint256[][]"
        },
        {
          "internalType": "string[]",
          "name": "candidates",
          "type": "string[]"
        },
        {
          "internalType": "uint256[]",
          "name": "sections",
          "type": "uint256[]"
        },
        {
          "internalType": "string",
          "name": "timestamp",
          "type": "string"
        }
      ],
      "stateMutability": "nonpayable",
      "type": "constructor"
    },
    {
      "inputs": [
        {
          "internalType": "uint256",
          "name": "sectionID",
          "type": "uint256"
        }
      ],
      "name": "getVotesBySection",
      "outputs": [
        {
          "internalType": "string[]",
          "name": "",
          "type": "string[]"
        },
        {
          "internalType": "uint256[]",
          "name": "",
          "type": "uint256[]"
        }
      ],
      "stateMutability": "view",
      "type": "function",
      "constant": true
    },
    {
      "inputs": [
        {
          "internalType": "uint256",
          "name": "sectionID",
          "type": "uint256"
        },
        {
          "internalType": "string",
          "name": "candidate",
          "type": "string"
        }
      ],
      "name": "getVotesOnSectionByCandidate",
      "outputs": [
        {
          "internalType": "uint256",
          "name": "votes",
          "type": "uint256"
        }
      ],
      "stateMutability": "view",
      "type": "function",
      "constant": true
    },
    {
      "inputs": [],
      "name": "getAllVotes",
      "outputs": [
        {
          "internalType": "uint256[]",
          "name": "",
          "type": "uint256[]"
        },
        {
          "internalType": "string[]",
          "name": "",
          "type": "string[]"
        },
        {
          "internalType": "uint256[][]",
          "name": "",
          "type": "uint256[][]"
        }
      ],
      "stateMutability": "view",
      "type": "function",
      "constant": true
    }
  ],
  "bytecode": "0x60806040523480156200001157600080fd5b506040516200177d3803806200177d833981810160405281019062000037919062000836565b33600460006101000a81548173ffffffffffffffffffffffffffffffffffffffff021916908373ffffffffffffffffffffffffffffffffffffffff160217905550806003908051906020019062000090929190620001be565b508160029080519060200190620000a99291906200024f565b508260019080519060200190620000c2929190620002a1565b5060005b8251811015620001b35760005b84518110156200019c57858281518110620000f357620000f262000924565b5b6020026020010151818151811062000110576200010f62000924565b5b602002602001015160008086858151811062000131576200013062000924565b5b602002602001015181526020019081526020016000208683815181106200015d576200015c62000924565b5b6020026020010151604051620001749190620009a0565b90815260200160405180910390208190555080806200019390620009e8565b915050620000d3565b508080620001aa90620009e8565b915050620000c6565b505050505062000a99565b828054620001cc9062000a64565b90600052602060002090601f016020900481019282620001f057600085556200023c565b82601f106200020b57805160ff19168380011785556200023c565b828001600101855582156200023c579182015b828111156200023b5782518255916020019190600101906200021e565b5b5090506200024b919062000308565b5090565b8280548282559060005260206000209081019282156200028e579160200282015b828111156200028d57825182559160200191906001019062000270565b5b5090506200029d919062000308565b5090565b828054828255906000526020600020908101928215620002f5579160200282015b82811115620002f4578251829080519060200190620002e3929190620001be565b5091602001919060010190620002c2565b5b50905062000304919062000327565b5090565b5b808211156200032357600081600090555060010162000309565b5090565b5b808211156200034b57600081816200034191906200034f565b5060010162000328565b5090565b5080546200035d9062000a64565b6000825580601f1062000371575062000392565b601f01602090049060005260206000209081019062000391919062000308565b5b50565b6000604051905090565b600080fd5b600080fd5b600080fd5b6000601f19601f8301169050919050565b7f4e487b7100000000000000000000000000000000000000000000000000000000600052604160045260246000fd5b620003f982620003ae565b810181811067ffffffffffffffff821117156200041b576200041a620003bf565b5b80604052505050565b60006200043062000395565b90506200043e8282620003ee565b919050565b600067ffffffffffffffff821115620004615762000460620003bf565b5b602082029050602081019050919050565b600080fd5b600067ffffffffffffffff821115620004955762000494620003bf565b5b602082029050602081019050919050565b6000819050919050565b620004bb81620004a6565b8114620004c757600080fd5b50565b600081519050620004db81620004b0565b92915050565b6000620004f8620004f28462000477565b62000424565b905080838252602082019050602084028301858111156200051e576200051d62000472565b5b835b818110156200054b5780620005368882620004ca565b84526020840193505060208101905062000520565b5050509392505050565b600082601f8301126200056d576200056c620003a9565b5b81516200057f848260208601620004e1565b91505092915050565b60006200059f620005998462000443565b62000424565b90508083825260208201905060208402830185811115620005c557620005c462000472565b5b835b818110156200061357805167ffffffffffffffff811115620005ee57620005ed620003a9565b5b808601620005fd898262000555565b85526020850194505050602081019050620005c7565b5050509392505050565b600082601f830112620006355762000634620003a9565b5b81516200064784826020860162000588565b91505092915050565b600067ffffffffffffffff8211156200066e576200066d620003bf565b5b602082029050602081019050919050565b600080fd5b600067ffffffffffffffff821115620006a257620006a1620003bf565b5b620006ad82620003ae565b9050602081019050919050565b60005b83811015620006da578082015181840152602081019050620006bd565b83811115620006ea576000848401525b50505050565b600062000707620007018462000684565b62000424565b9050828152602081018484840111156200072657620007256200067f565b5b62000733848285620006ba565b509392505050565b600082601f830112620007535762000752620003a9565b5b815162000765848260208601620006f0565b91505092915050565b6000620007856200077f8462000650565b62000424565b90508083825260208201905060208402830185811115620007ab57620007aa62000472565b5b835b81811015620007f957805167ffffffffffffffff811115620007d457620007d3620003a9565b5b808601620007e389826200073b565b85526020850194505050602081019050620007ad565b5050509392505050565b600082601f8301126200081b576200081a620003a9565b5b81516200082d8482602086016200076e565b91505092915050565b600080600080608085870312156200085357620008526200039f565b5b600085015167ffffffffffffffff811115620008745762000873620003a4565b5b62000882878288016200061d565b945050602085015167ffffffffffffffff811115620008a657620008a5620003a4565b5b620008b48782880162000803565b935050604085015167ffffffffffffffff811115620008d857620008d7620003a4565b5b620008e68782880162000555565b925050606085015167ffffffffffffffff8111156200090a5762000909620003a4565b5b62000918878288016200073b565b91505092959194509250565b7f4e487b7100000000000000000000000000000000000000000000000000000000600052603260045260246000fd5b600081519050919050565b600081905092915050565b6000620009768262000953565b6200098281856200095e565b935062000994818560208601620006ba565b80840191505092915050565b6000620009ae828462000969565b915081905092915050565b7f4e487b7100000000000000000000000000000000000000000000000000000000600052601160045260246000fd5b6000620009f582620004a6565b91507fffffffffffffffffffffffffffffffffffffffffffffffffffffffffffffffff820362000a2a5762000a29620009b9565b5b600182019050919050565b7f4e487b7100000000000000000000000000000000000000000000000000000000600052602260045260246000fd5b6000600282049050600182168062000a7d57607f821691505b60208210810362000a935762000a9262000a35565b5b50919050565b610cd48062000aa96000396000f3fe608060405234801561001057600080fd5b50600436106100415760003560e01c8063851b6ef214610046578063e0042b4a14610066578063f270ce8514610097575b600080fd5b61004e6100c7565b60405161005d939291906107ef565b60405180910390f35b610080600480360381019061007b919061087b565b6102ee565b60405161008e9291906108a8565b60405180910390f35b6100b160048036038101906100ac9190610a14565b610462565b6040516100be9190610a7f565b60405180910390f35b60608060608060005b6002805490508110156101b75760005b6001805490508110156101a3576000806002848154811061010457610103610a9a565b5b906000526020600020015481526020019081526020016000206001828154811061013157610130610a9a565b5b906000526020600020016040516101489190610bc8565b90815260200160405180910390205483838151811061016a57610169610a9a565b5b6020026020010151828151811061018457610183610a9a565b5b602002602001018181525050808061019b90610c0e565b9150506100e0565b5080806101af90610c0e565b9150506100d0565b5060026001828280548060200260200160405190810160405280929190818152602001828054801561020857602002820191906000526020600020905b8154815260200190600101908083116101f4575b5050505050925081805480602002602001604051908101604052809291908181526020016000905b828210156102dc57838290600052602060002001805461024f90610af8565b80601f016020809104026020016040519081016040528092919081815260200182805461027b90610af8565b80156102c85780601f1061029d576101008083540402835291602001916102c8565b820191906000526020600020905b8154815290600101906020018083116102ab57829003601f168201915b505050505081526020019060010190610230565b50505050915093509350935050909192565b606080606060005b600180549050811015610381576000808681526020019081526020016000206001828154811061032957610328610a9a565b5b906000526020600020016040516103409190610bc8565b90815260200160405180910390205482828151811061036257610361610a9a565b5b602002602001018181525050808061037990610c0e565b9150506102f6565b5060018181805480602002602001604051908101604052809291908181526020016000905b828210156104525783829060005260206000200180546103c590610af8565b80601f01602080910402602001604051908101604052809291908181526020018280546103f190610af8565b801561043e5780601f106104135761010080835404028352916020019161043e565b820191906000526020600020905b81548152906001019060200180831161042157829003601f168201915b5050505050815260200190600101906103a6565b5050505091509250925050915091565b6000806000848152602001908152602001600020826040516104849190610c87565b908152602001604051809103902054905092915050565b600081519050919050565b600082825260208201905092915050565b6000819050602082019050919050565b6000819050919050565b6104da816104c7565b82525050565b60006104ec83836104d1565b60208301905092915050565b6000602082019050919050565b60006105108261049b565b61051a81856104a6565b9350610525836104b7565b8060005b8381101561055657815161053d88826104e0565b9750610548836104f8565b925050600181019050610529565b5085935050505092915050565b600081519050919050565b600082825260208201905092915050565b6000819050602082019050919050565b600081519050919050565b600082825260208201905092915050565b60005b838110156105c95780820151818401526020810190506105ae565b838111156105d8576000848401525b50505050565b6000601f19601f8301169050919050565b60006105fa8261058f565b610604818561059a565b93506106148185602086016105ab565b61061d816105de565b840191505092915050565b600061063483836105ef565b905092915050565b6000602082019050919050565b600061065482610563565b61065e818561056e565b9350836020820285016106708561057f565b8060005b858110156106ac578484038952815161068d8582610628565b94506106988361063c565b925060208a01995050600181019050610674565b50829750879550505050505092915050565b600081519050919050565b600082825260208201905092915050565b6000819050602082019050919050565b600082825260208201905092915050565b60006107068261049b565b61071081856106ea565b935061071b836104b7565b8060005b8381101561074c57815161073388826104e0565b975061073e836104f8565b92505060018101905061071f565b5085935050505092915050565b600061076583836106fb565b905092915050565b6000602082019050919050565b6000610785826106be565b61078f81856106c9565b9350836020820285016107a1856106da565b8060005b858110156107dd57848403895281516107be8582610759565b94506107c98361076d565b925060208a019950506001810190506107a5565b50829750879550505050505092915050565b600060608201905081810360008301526108098186610505565b9050818103602083015261081d8185610649565b90508181036040830152610831818461077a565b9050949350505050565b6000604051905090565b600080fd5b600080fd5b610858816104c7565b811461086357600080fd5b50565b6000813590506108758161084f565b92915050565b60006020828403121561089157610890610845565b5b600061089f84828501610866565b91505092915050565b600060408201905081810360008301526108c28185610649565b905081810360208301526108d68184610505565b90509392505050565b600080fd5b600080fd5b7f4e487b7100000000000000000000000000000000000000000000000000000000600052604160045260246000fd5b610921826105de565b810181811067ffffffffffffffff821117156109405761093f6108e9565b5b80604052505050565b600061095361083b565b905061095f8282610918565b919050565b600067ffffffffffffffff82111561097f5761097e6108e9565b5b610988826105de565b9050602081019050919050565b82818337600083830152505050565b60006109b76109b284610964565b610949565b9050828152602081018484840111156109d3576109d26108e4565b5b6109de848285610995565b509392505050565b600082601f8301126109fb576109fa6108df565b5b8135610a0b8482602086016109a4565b91505092915050565b60008060408385031215610a2b57610a2a610845565b5b6000610a3985828601610866565b925050602083013567ffffffffffffffff811115610a5a57610a5961084a565b5b610a66858286016109e6565b9150509250929050565b610a79816104c7565b82525050565b6000602082019050610a946000830184610a70565b92915050565b7f4e487b7100000000000000000000000000000000000000000000000000000000600052603260045260246000fd5b7f4e487b7100000000000000000000000000000000000000000000000000000000600052602260045260246000fd5b60006002820490506001821680610b1057607f821691505b602082108103610b2357610b22610ac9565b5b50919050565b600081905092915050565b60008190508160005260206000209050919050565b60008154610b5681610af8565b610b608186610b29565b94506001821660008114610b7b5760018114610b8c57610bbf565b60ff19831686528186019350610bbf565b610b9585610b34565b60005b83811015610bb757815481890152600182019150602081019050610b98565b838801955050505b50505092915050565b6000610bd48284610b49565b915081905092915050565b7f4e487b7100000000000000000000000000000000000000000000000000000000600052601160045260246000fd5b6000610c19826104c7565b91507fffffffffffffffffffffffffffffffffffffffffffffffffffffffffffffffff8203610c4b57610c4a610bdf565b5b600182019050919050565b6000610c618261058f565b610c6b8185610b29565b9350610c7b8185602086016105ab565b80840191505092915050565b6000610c938284610c56565b91508190509291505056fea26469706673582212201994816057935a1304b96aa0311fe49d6790e6d8bec27e6edfdc118ed272e47c64736f6c634300080d0033",
  "immutableReferences": {},
  "source": "// SPDX-License-Identifier: GPL-3.0\r\npragma solidity >=0.8.0 <0.9.0;\r\npragma abicoder v2;\r\n\r\ncontract VotingDb \r\n{\r\n    //Sections (uint) > Candidates (string) > Votes (uint)\r\n    mapping(uint => mapping(string => uint)) _sectionResults;\r\n    \r\n    string[] _candidates;\r\n    uint[] _sections;\r\n    string _timestamp;\r\n    address _owner;\r\n\r\n    constructor\r\n    (\r\n        uint[][] memory votes,\r\n        string[] memory candidates,\r\n        uint[] memory sections,\r\n        string memory timestamp\r\n    ) \r\n    {\r\n        _owner = msg.sender;\r\n        _timestamp = timestamp;\r\n        _sections = sections;\r\n        _candidates = candidates;\r\n\r\n        for(uint i = 0; i < sections.length; i++) \r\n        {\r\n            for(uint j = 0; j < candidates.length; j++)\r\n            {\r\n                _sectionResults[sections[i]][candidates[j]] = votes[i][j];\r\n            }\r\n        }\r\n    }\r\n\r\n    //Queries\r\n    function getVotesBySection(uint sectionID) \r\n    public \r\n    view \r\n    returns (string[] memory, uint[] memory) \r\n    {\r\n        uint[] memory votes;\r\n        for(uint i = 0; i < _candidates.length; i++) \r\n        {\r\n            votes[i] = _sectionResults[sectionID][_candidates[i]];\r\n        }\r\n\r\n        return (_candidates, votes);\r\n    }\r\n\r\n    function getVotesOnSectionByCandidate(uint sectionID, string memory candidate) \r\n    public\r\n    view\r\n    returns (uint votes)\r\n    {\r\n        return _sectionResults[sectionID][candidate];\r\n    }\r\n\r\n    function getAllVotes()\r\n    public\r\n    view\r\n    returns (uint[] memory, string[] memory, uint[][] memory)\r\n    {\r\n        uint[][] memory votes;\r\n\r\n        for(uint i = 0; i < _sections.length; i++)\r\n        {\r\n            for(uint j = 0; j < _candidates.length; j++) \r\n            {\r\n                votes[i][j] = _sectionResults[_sections[i]][_candidates[j]];\r\n            }\r\n        }\r\n\r\n        return (_sections, _candidates, votes);\r\n    }\r\n}",
  "sourcePath": "C:\\Users\\victo\\OneDrive\\rea de Trabalho\\TCC-ContractProject\\contracts\\VotingDb.sol",
  "compiler": {
    "name": "solc",
    "version": "0.8.13+commit.abaa5c0e.Emscripten.clang"
  },
  "schemaVersion": "3.4.13",
  "updatedAt": "2023-03-03T20:28:30.887Z",
  "networkType": "ethereum",
  "devdoc": {
    "kind": "dev",
    "methods": {},
    "version": 1
  },
  "userdoc": {
    "kind": "user",
    "methods": {},
    "version": 1
  }
}